{
  "_format": "hh-sol-artifact-1",
  "contractName": "FFTVerifier",
  "sourceName": "contracts/FFTVerifier.sol",
  "abi": [
    {
      "inputs": [
        {
          "internalType": "uint256[]",
          "name": "input",
          "type": "uint256[]"
        },
        {
          "internalType": "uint256",
          "name": "output",
          "type": "uint256"
        },
        {
          "internalType": "uint256[]",
          "name": "g0",
          "type": "uint256[]"
        },
        {
          "internalType": "uint256[]",
          "name": "g1",
          "type": "uint256[]"
        },
        {
          "internalType": "uint256[]",
          "name": "g2",
          "type": "uint256[]"
        },
        {
          "internalType": "uint256[]",
          "name": "roundCounts",
          "type": "uint256[]"
        }
      ],
      "name": "verifyFull",
      "outputs": [
        {
          "internalType": "bool",
          "name": "",
          "type": "bool"
        }
      ],
      "stateMutability": "pure",
      "type": "function"
    },
    {
      "inputs": [
        {
          "internalType": "bytes32",
          "name": "inputCommitment",
          "type": "bytes32"
        },
        {
          "internalType": "uint256",
          "name": "output",
          "type": "uint256"
        },
        {
          "internalType": "uint256[]",
          "name": "g0",
          "type": "uint256[]"
        },
        {
          "internalType": "uint256[]",
          "name": "g1",
          "type": "uint256[]"
        },
        {
          "internalType": "uint256[]",
          "name": "g2",
          "type": "uint256[]"
        },
        {
          "internalType": "uint256[]",
          "name": "roundCounts",
          "type": "uint256[]"
        },
        {
          "internalType": "uint256[]",
          "name": "vaVb",
          "type": "uint256[]"
        },
        {
          "internalType": "uint256[]",
          "name": "nextClaimed",
          "type": "uint256[]"
        }
      ],
      "name": "verifyWithIPFS",
      "outputs": [
        {
          "internalType": "bool",
          "name": "",
          "type": "bool"
        }
      ],
      "stateMutability": "pure",
      "type": "function"
    }
  ],
  "bytecode": "0x6080806040523461001657611c6f908161001c8239f35b600080fdfe61036060405260048036101561001457600080fd5b6000803560e01c806305e2a262146100fe57631d7fdb361461003557600080fd5b346100ef5760c03660031901126100ef5767ffffffffffffffff82358181116100fa5761006590369085016101d8565b9290936044358381116100fa5761007f90369083016101d8565b6064929192358581116100f65761009990369084016101d8565b9390926084358781116100f2576100b390369083016101d8565b97909660a4359182116100ef5760206100e58c8c8c8c8c8c8c8c6100d9368d8f016101d8565b9890976024359161039d565b6040519015158152f35b80fd5b8680fd5b8480fd5b8280fd5b5090346101d4576101003660031901126101d45767ffffffffffffffff6044358181116101d05761013290369084016101d8565b9390926064358381116100fa5761014c90369083016101d8565b6084929192358581116100f65761016690369084016101d8565b9160a4358781116100f25761017e90369086016101d8565b95909460c4358981116101cc5761019890369083016101d8565b99909860e4359182116100ef5760206100e58e8e8e8e8e8e8e8e8e8e6101c18f8f3691016101d8565b9a90996024356112a0565b8880fd5b8380fd5b5080fd5b9181601f840112156102095782359167ffffffffffffffff8311610209576020808501948460051b01011161020957565b600080fd5b60001981019190821161021d57565b634e487b7160e01b600052601160045260246000fd5b9190820391821161021d57565b600019811461021d5760010190565b67ffffffffffffffff81116102675760051b60200190565b634e487b7160e01b600052604160045260246000fd5b906102878261024f565b60405190601f1990601f018116820167ffffffffffffffff811183821017610267576040528382526102b9829461024f565b0190602036910137565b8051156102d05760200190565b634e487b7160e01b600052603260045260246000fd5b80518210156102d05760209160051b010190565b91908110156102d05760051b0190565b906385ebca6b820180921161021d57565b906001820180921161021d57565b6001601160c01b01600160fb1b019081019190821061021d57565b9190820180921161021d57565b1561035857565b60405162461bcd60e51b815260206004820152601960248201527f46465456657269666965723a2070726f6f66206c656e677468000000000000006044820152606490fd5b9a979893909592969994919a61020052856101a05260e052610260526101e052610320526103005260028110159081610bf6575b5015610bb1576000610280526101a051805b610b98575060001980610180526102805190810190811161021d576103005103610b53576104136102805161027d565b6101205260005b6102805181101561048a57600180821b908111610451575061044c9060015b61044682610120516102e6565b52610240565b61041a565b61018051810190811161021d57906000825b6104715761044c9250610439565b610481919260011c918291610240565b91929190610463565b5090919293600061024052926104ab6104a5610120516102c3565b5161027d565b61010052610240515b6101005180518210156104d957906104d4916104468261024051926102e6565b6104b4565b50509192909261024051610220525b6102805161018051810190811161021d576102205190811015610b35576105169061030051610320516102fa565b358060805261052b60e0519161024051610344565b111580610b27575b80610b1c575b61054290610351565b6105796105746105586102405160e051886102fa565b3561056d610240516101e051610260516102fa565b3590610344565b611a05565b918203610b1257600161034052819061059360805161027d565b6102c05260005b608051811015610652576105bd6105b48261024051610344565b60e051886102fa565b35926105dc6105cf8361024051610344565b6101e051610260516102fa565b35906105f56105ee8461024051610344565b888b6102fa565b35956106046105748488610344565b03610644578161062161063f949387610631946103405190610c0c565b9687916000610340528297611ad8565b94610446826102c0516102e6565b61059a565b505050945050505050600090565b50939492905061066760805161024051610344565b6102405261067b61022051610120516102e6565b51926106956106906001196080511686610344565b61027d565b95600060a0525b60a051858110156106d5576106b490610100516102e6565b516106c160a051896102e6565b526106cd60a051610240565b60a05261069c565b5090919594929395600060c0525b60805160011c60c0519081101561076757610701906102c0516102e6565b5161071761071160c0518a610344565b886102e6565b5261073561072c60c05160805160011c610344565b6102c0516102e6565b5161075361071160c05161074e60805160011c8c610344565b610344565b5261075f60c051610240565b60c0526106e3565b5092959461077c919560805160011c91610c74565b9361078b60805160011c61027d565b6101c05261079d60805160011c61027d565b6102e05260005b60805160011c8110156107f657806107c26107f1926102c0516102e6565b516107d0826101c0516102e6565b526107e361072c8260805160011c610344565b51610446826102e0516102e6565b6107a4565b509394919290946102205160018101811161021d57610120516101a051610200516101c0516108279460010161112e565b90610863610574600167080000000000001160c01b019361085d610120516101a051610200516102e0516001610220510161112e565b90610344565b900903610b095761087d60016102205101610120516102e6565b51610160526000806102a0525b60805160011c6102a05190811080610b04575b156109f6576108af906101c0516102e6565b516102a051808060051b046020148115171561021d5760019060051b6002815b6109b857506108f6936105749390926001601160c01b01600160fb1b019250900990610344565b6109066102a0516102e0516102e6565b516101405261091d6102a05160805160011c610344565b808060051b046020148115171561021d5760019060051b6002815b61097a57505061014051610963926105749290916001601160c01b01600160fb1b0191900990610344565b936109706102a051610240565b6102a0529361088a565b6001821661099f575b6001601160c01b01600160fb1b019080099060011c9081610938565b916001601160c01b01600160fb1b019083900991610983565b600182166109dd575b6001601160c01b01600160fb1b019080099060011c90816108cf565b916001601160c01b01600160fb1b0190839009916109c1565b50919390929091610a2090610574906001601160c01b01600160fb1b0190639e3779b1900961030a565b6001601160c01b01600160fb1b018110610afe576001601160c01b01600160fb1b019006935b610a526101605161027d565b6101005260005b61016051811015610ac457610aba90610a88610574826001601160c01b01600160fb1b01620f42408b09610344565b6001601160c01b01600160fb1b018110610abf576001601160c01b01600160fb1b0190065b61044682610100516102e6565b610a59565b610aad565b5091935091610ae8610120516101a05161020051610100516001610220510161112e565b90610af561022051610240565b610220526104e8565b93610a46565b61089d565b92505050600090565b9350505050600090565b5060e0518314610539565b5060e0516101e05114610533565b509350915050610b4f610100516101a05161020051610f69565b1490565b60405162461bcd60e51b815260206004820152601c60248201527f46465456657269666965723a20726f756e64436f756e7473206c656e000000006044820152606490fd5b610ba461028051610240565b6102805260011c806103e3565b60405162461bcd60e51b815260206004820152601d60248201527f46465456657269666965723a206e206e6f7420706f776572206f6620320000006044820152606490fd5b6000198101915080821161021d571615386103d1565b610574620f42409461074e610574610c4794639e3779b196600014610c6f575b6001601160c01b01600160fb1b019889988991900990610344565b096385ebca6b810180911161021d57610c5f90611a05565b818110610c6a570690565b905090565b610c2c565b80519291906001600160ff1b038316830361021d57600193610c9884861b84610344565b11610f2457839160005b818110610e77575080841115610d9857610cc5610cbf8280610344565b836102e6565b516001601160c01b01600160fb1b019590860386811161021d5781810180911161021d57869081610d03610cfd8661074e8b82610344565b876102e6565b519106099481830180841161021d57939291905b808510610d275750505050500990565b9091929395610d3f610d398886610344565b866102e6565b5188039088821161021d5783820180921161021d57610d65610cfd8961074e8689610344565b5189039189831161021d5784830180931161021d578980928180610d8f9606930690090996610240565b93929190610d17565b90919281151594858096610e58575b610e4d578515610e4757610dbb8380610344565b600019810190811161021d57610dd190856102e6565b516001601160c01b01600160fb1b01919082039082821161021d57810180911161021d5706945b60009015610e3d57509061074e610e0f9282610344565b600019810190811161021d57610e24916102e6565b51905b6001601160c01b01600160fb1b01928391090990565b9250505090610e27565b94610df8565b505050505050600090565b50600019830183811161021d57610e6f90856102e6565b511515610da7565b92610e8284846102e6565b5190610e97610e918685610344565b856102e6565b5190610eaa610d398761074e8a88610344565b516001601160c01b01600160fb1b01848103949093919084861161021d578a860180961161021d578285039185831161021d578b830180931161021d578086039086821161021d578c820180921161021d5786610f17958180948161057498610f1f9d0909940909610344565b900993610240565b610ca2565b60405162461bcd60e51b815260206004820152601c60248201527f46465456657269666965723a20706f696e7420746f6f2073686f7274000000006044820152606490fd5b82519260019283851b918282036110a4576000958695939493600019820182811194939291905b878910610fa35750505050505050505090565b90919293949596979887838b60005b8a88821061100557505092610ff29261057492610feb610fe5610ff8978d600167080000000000001160c01b01956102fa565b35611a05565b0990610344565b99610240565b9796959493929190610f90565b9150925061021d5784808d61101a8588610233565b1c1614600090600014611057575061104e9061103683896102e6565b515b6001601160c01b01600160fb1b01910991610240565b908b8a92610fb2565b61106183896102e6565b516001601160c01b01600160fb1b01908103919082116110905786820180921161109057509061104e91611038565b634e487b7160e01b81526011600452602490fd5b60405162461bcd60e51b815260206004820152601960248201527f46465456657269666965723a20696e707574206c656e677468000000000000006044820152606490fd5b156110f057565b60405162461bcd60e51b815260206004820152601660248201527523232a2b32b934b334b2b91d103837b4b73a103632b760511b6044820152606490fd5b939192909261113d85846102e6565b519361114b858251146110e9565b611155845161020e565b86146112915783838361117061116a8a61031b565b846102e6565b519761117b8161031b565b906111858a61027d565b9561118f8b61027d565b9a808410159360005b8281106111d1575050505050506111b7936111b28a61031b565b61112e565b936111b26111c5959661031b565b6111ce916119f8565b90565b9194975092955061122c91945086600014611251578b6111f58261074e8787610233565b828882108b6000838315611247576112199150611212868d6102e6565b51926102e6565b521561123a5761121261044692896102e6565b928995928995928995611198565b61044691506001926102e6565b61121991926102e6565b8b888261125e8688610233565b81101561127c576000928361127683610446956102e6565b526102e6565b50506111f561128b8587610233565b83610233565b93509091506111ce9350610f69565b9b95919c9a949893999692909c610320526102e0526102a05261010052846101e052610180528261012052610300526102605260018201821161021d576001600160ff1b038216820361021d578160011b116119bb576101e05161026051106119765761130f6001820161027d565b6103405260005b600182018110611902575050600093916113356104a5610340516102c3565b61028052846101a0525b610280518051906101a0519182101561137357869161135d916102e6565b5261136a6101a051610240565b6101a05261133f565b5050919490939293839484610220525b6101e0516102205190808210156118f4576113c0916113a591610100516102fa565b3580610160526113b9610320519188610344565b1115610351565b6113e36105746113d48761032051876102fa565b3561056d88886102e0516102fa565b9687036118e85760019187936113fb6101605161027d565b986000905b610160518210156114b557611422611418838b610344565b61032051856102fa565b359561143b611431848c610344565b8a6102e0516102fa565b359761145461144a858d610344565b6102a051886102fa565b35926114636105748b8b610344565b036114a35791610446846114938f9b9a99989796948b8b6114879261149999610c0c565b809460009c829c611ad8565b9a6102e6565b9091929395611400565b50505050505095505050505050600090565b945050919350946114ca906101605190610344565b6114da61022051610340516102e6565b51956114f0610690600119610160511689610344565b9560005b8881106118c7575060005b8a6101605160011c82101561156c5790896104466115618361074e611552878f61154161152f866115679c6102e6565b519161153b878b610344565b906102e6565b5261153b846101605160011c610344565b51946101605160011c90610344565b8b6102e6565b6114ff565b505095611586919798939492986101605160011c91610c74565b6115978361012051610180516102fa565b35906001840180851161021d576115b59061012051610180516102fa565b35936002810180911161021d57936001601160c01b01600160fb1b01926115df9161057491610344565b9009036118bb576115f56101605160011c61027d565b610240526116086101605160011c61027d565b6101405260005b6101605160011c811015611666578061162b611661928a6102e6565b5161163982610240516102e6565b5261165361164d826101605160011c610344565b8a6102e6565b5161044682610140516102e6565b61160f565b50919395509193610220516001810180911161021d5761168990610340516102e6565b516101c05260006102005260006102c0525b6101605160011c6102c051908110806118b6575b1561177f576116c190610240516102e6565b516102c0519060059082821b9060209380830485149015171561021d5761170991610574916001601160c01b01600160fb1b01916116fe90611a24565b900961020051610344565b6117196102c051610140516102e6565b519161172e6102c0516101605160011c610344565b80911b93818504149015171561021d5761176692610574926001601160c01b01600160fb1b019161175e90611a24565b900990610344565b610200526117766102c051610240565b6102c05261169b565b50909192936117a8610574600167080000000000001160c01b01639e3779b1610200510961030a565b6001601160c01b01600160fb1b0181106118b0576001601160c01b01600160fb1b019006955b6117da6101c05161027d565b6102805260005b6101c05181101561187a5761184890611810610574826001601160c01b01600160fb1b01620f42408d09610344565b61181d82610280516102e6565b52610280516001601160c01b01600160fb1b019061183c9083906102e6565b51101561184d57610240565b6117e1565b610280516001601160c01b01600160fb1b019061186b9083906102e6565b510661044682610280516102e6565b509193955091936118956102205161026051610300516102fa565b35916118a361022051610240565b6102205290959195611383565b956117ce565b6116af565b50509350505050600090565b806118d86118e392610280516102e6565b51610446828b6102e6565b6114f4565b95505050505050600090565b505095505050505050600190565b6000600180831b90811161192e575050611927600191825b61044682610340516102e6565b9050611316565b600019810190811161196257805b61194d57506001916119279161191a565b60011c90819061195c90610240565b9161193c565b634e487b7160e01b82526011600452602482fd5b60405162461bcd60e51b815260206004820152601c60248201527f46465456657269666965723a206e657874436c61696d6564206c656e000000006044820152606490fd5b60405162461bcd60e51b815260206004820152601560248201527423232a2b32b934b334b2b91d103b30ab31103632b760591b6044820152606490fd5b6111ce9161057491610344565b6001601160c01b01600160fb1b0180821015611a1f575090565b900690565b600190816002825b611a365750505090565b818316611a59575b6001601160c01b01600160fb1b0190800991811c9182611a2c565b926001601160c01b01600160fb1b019084900992611a3e565b6001600167080000000000001160c01b038167080000000000001160c01b825b611a9c5750505090565b818316611abf575b6001601160c01b01600160fb1b0190800991811c9182611a92565b926001601160c01b01600160fb1b019084900992611aa4565b9190611ae384610329565b600019810190811161021d57611af890611a05565b93611b0281610329565b600119810190811161021d57611b1790611a05565b91611b20611a72565b95600191600167080000000000001160c01b0380805b611bfb57506001989050600167080000000000001160c01b036002815b611bbd57505091610574979593916001611bb061057488966111ce9d9b998467080000000000001160c01b019b8c8b8180809e9c81809e9c81809e9981809b81611b9b611a72565b60010992090990099709918b09099009610344565b9809920909900990610344565b60018216611be2575b6001601160c01b01600160fb1b019080099060011c9081611b53565b996001601160c01b01600160fb1b01908b900999611bc6565b60018216611c20575b6001601160c01b01600160fb1b019080099060011c9081611b36565b936001601160c01b01600160fb1b019085900993611c0456fea264697066735822122058ffc0f874c46d03f4015b1d9249faf2dd7306969f17daa32e0aa48194129de564736f6c63430008130033",
  "linkReferences": {},
  "deployedLinkReferences": {}
}