{
  "_format": "hh-sol-artifact-1",
  "contractName": "FFTDirect",
  "sourceName": "contracts/FFTDirect.sol",
  "abi": [
    {
      "inputs": [
        {
          "internalType": "uint256[]",
          "name": "input",
          "type": "uint256[]"
        }
      ],
      "name": "fft",
      "outputs": [
        {
          "internalType": "uint256",
          "name": "output",
          "type": "uint256"
        }
      ],
      "stateMutability": "pure",
      "type": "function"
    },
    {
      "inputs": [
        {
          "internalType": "uint256[]",
          "name": "input",
          "type": "uint256[]"
        }
      ],
      "name": "fftGas",
      "outputs": [
        {
          "internalType": "uint256",
          "name": "gasUsed",
          "type": "uint256"
        }
      ],
      "stateMutability": "nonpayable",
      "type": "function"
    }
  ],
  "bytecode": "0x60808060405234610016576103cc908161001c8239f35b600080fdfe608060408181526004918236101561001657600080fd5b600090813560e01c90816346e77ab1146101af575063f16c72281461003a57600080fd5b346101ac5761004836610278565b60019291928082101580610184575b156101415761006582610302565b91610072865193846102ca565b80835261007e81610302565b602084019590601f1901368737845b82811061011f5750505b8181116100c557505051156100b25760208383519051908152f35b634e487b7160e01b815260328452602490fd5b811c835b8181106100d65750610097565b8061010a6101056100ea61011a948861033f565b516100fe6100f88786610369565b8961033f565b5190610369565b610376565b610114828761033f565b5261031a565b6100c9565b8061013261013c9260051b840135610376565b610114828861033f565b61008d565b845162461bcd60e51b8152602081880152601f60248201527f4646544469726563743a206e206d75737420626520706f776572206f662032006044820152606490fd5b50600019820182811161019957821615610057565b634e487b7160e01b845260118752602484fd5b80fd5b92919050346101ac576101c136610278565b9490935a631e2d8e4560e31b8252602083830181905260248301889052969095906001600160fb1b038111610274576044838993819360051b8091848401378101030181305afa801561026a5790869161023d575b50505a840393841161022a57505051908152f35b634e487b7160e01b825260119052602490fd5b813d8311610263575b61025081836102ca565b8101031261025f578438610216565b5080fd5b503d610246565b84513d85823e3d90fd5b8480fd5b9060206003198301126102c55760043567ffffffffffffffff928382116102c557806023830112156102c55781600401359384116102c55760248460051b830101116102c5576024019190565b600080fd5b90601f8019910116810190811067ffffffffffffffff8211176102ec57604052565b634e487b7160e01b600052604160045260246000fd5b67ffffffffffffffff81116102ec5760051b60200190565b60001981146103295760010190565b634e487b7160e01b600052601160045260246000fd5b80518210156103535760209160051b010190565b634e487b7160e01b600052603260045260246000fd5b9190820180921161032957565b600167080000000000001160c01b0180821015610391575090565b90069056fea2646970667358221220cada2cbee1759c889cfebd23bfe804af022b0028cf9d7741600268316f92209864736f6c63430008130033",
  "linkReferences": {},
  "deployedLinkReferences": {}
}