{"contracts/FFTDirect.sol":{"FFTDirect":{"abi":[{"inputs":[{"internalType":"uint256[]","name":"input","type":"uint256[]"}],"name":"fft","outputs":[{"internalType":"uint256","name":"output","type":"uint256"}],"stateMutability":"pure","type":"function"},{"inputs":[{"internalType":"uint256[]","name":"input","type":"uint256[]"}],"name":"fftGas","outputs":[{"internalType":"uint256","name":"gasUsed","type":"uint256"}],"stateMutability":"nonpayable","type":"function"}],"evm":{"bytecode":{"linkReferences":{},"object":"60808060405234610016576103cc908161001c8239f35b600080fdfe608060408181526004918236101561001657600080fd5b600090813560e01c90816346e77ab1146101af575063f16c72281461003a57600080fd5b346101ac5761004836610278565b60019291928082101580610184575b156101415761006582610302565b91610072865193846102ca565b80835261007e81610302565b602084019590601f1901368737845b82811061011f5750505b8181116100c557505051156100b25760208383519051908152f35b634e487b7160e01b815260328452602490fd5b811c835b8181106100d65750610097565b8061010a6101056100ea61011a948861033f565b516100fe6100f88786610369565b8961033f565b5190610369565b610376565b610114828761033f565b5261031a565b6100c9565b8061013261013c9260051b840135610376565b610114828861033f565b61008d565b845162461bcd60e51b8152602081880152601f60248201527f4646544469726563743a206e206d75737420626520706f776572206f662032006044820152606490fd5b50600019820182811161019957821615610057565b634e487b7160e01b845260118752602484fd5b80fd5b92919050346101ac576101c136610278565b9490935a631e2d8e4560e31b8252602083830181905260248301889052969095906001600160fb1b038111610274576044838993819360051b8091848401378101030181305afa801561026a5790869161023d575b50505a840393841161022a57505051908152f35b634e487b7160e01b825260119052602490fd5b813d8311610263575b61025081836102ca565b8101031261025f578438610216565b5080fd5b503d610246565b84513d85823e3d90fd5b8480fd5b9060206003198301126102c55760043567ffffffffffffffff928382116102c557806023830112156102c55781600401359384116102c55760248460051b830101116102c5576024019190565b600080fd5b90601f8019910116810190811067ffffffffffffffff8211176102ec57604052565b634e487b7160e01b600052604160045260246000fd5b67ffffffffffffffff81116102ec5760051b60200190565b60001981146103295760010190565b634e487b7160e01b600052601160045260246000fd5b80518210156103535760209160051b010190565b634e487b7160e01b600052603260045260246000fd5b9190820180921161032957565b600167080000000000001160c01b0180821015610391575090565b90069056fea2646970667358221220cada2cbee1759c889cfebd23bfe804af022b0028cf9d7741600268316f92209864736f6c63430008130033","opcodes":"PUSH1 0x80 DUP1 PUSH1 0x40 MSTORE CALLVALUE PUSH2 0x16 JUMPI PUSH2 0x3CC SWAP1 DUP2 PUSH2 0x1C DUP3 CODECOPY RETURN JUMPDEST PUSH1 0x0 DUP1 REVERT INVALID PUSH1 0x80 PUSH1 0x40 DUP2 DUP2 MSTORE PUSH1 0x4 SWAP2 DUP3 CALLDATASIZE LT ISZERO PUSH2 0x16 JUMPI PUSH1 0x0 DUP1 REVERT JUMPDEST PUSH1 0x0 SWAP1 DUP2 CALLDATALOAD PUSH1 0xE0 SHR SWAP1 DUP2 PUSH4 0x46E77AB1 EQ PUSH2 0x1AF JUMPI POP PUSH4 0xF16C7228 EQ PUSH2 0x3A JUMPI PUSH1 0x0 DUP1 REVERT JUMPDEST CALLVALUE PUSH2 0x1AC JUMPI PUSH2 0x48 CALLDATASIZE PUSH2 0x278 JUMP JUMPDEST PUSH1 0x1 SWAP3 SWAP2 SWAP3 DUP1 DUP3 LT ISZERO DUP1 PUSH2 0x184 JUMPI JUMPDEST ISZERO PUSH2 0x141 JUMPI PUSH2 0x65 DUP3 PUSH2 0x302 JUMP JUMPDEST SWAP2 PUSH2 0x72 DUP7 MLOAD SWAP4 DUP5 PUSH2 0x2CA JUMP JUMPDEST DUP1 DUP4 MSTORE PUSH2 0x7E DUP2 PUSH2 0x302 JUMP JUMPDEST PUSH1 0x20 DUP5 ADD SWAP6 SWAP1 PUSH1 0x1F NOT ADD CALLDATASIZE DUP8 CALLDATACOPY DUP5 JUMPDEST DUP3 DUP2 LT PUSH2 0x11F JUMPI POP POP JUMPDEST DUP2 DUP2 GT PUSH2 0xC5 JUMPI POP POP MLOAD ISZERO PUSH2 0xB2 JUMPI PUSH1 0x20 DUP4 DUP4 MLOAD SWAP1 MLOAD SWAP1 DUP2 MSTORE RETURN JUMPDEST PUSH4 0x4E487B71 PUSH1 0xE0 SHL DUP2 MSTORE PUSH1 0x32 DUP5 MSTORE PUSH1 0x24 SWAP1 REVERT JUMPDEST DUP2 SHR DUP4 JUMPDEST DUP2 DUP2 LT PUSH2 0xD6 JUMPI POP PUSH2 0x97 JUMP JUMPDEST DUP1 PUSH2 0x10A PUSH2 0x105 PUSH2 0xEA PUSH2 0x11A SWAP5 DUP9 PUSH2 0x33F JUMP JUMPDEST MLOAD PUSH2 0xFE PUSH2 0xF8 DUP8 DUP7 PUSH2 0x369 JUMP JUMPDEST DUP10 PUSH2 0x33F JUMP JUMPDEST MLOAD SWAP1 PUSH2 0x369 JUMP JUMPDEST PUSH2 0x376 JUMP JUMPDEST PUSH2 0x114 DUP3 DUP8 PUSH2 0x33F JUMP JUMPDEST MSTORE PUSH2 0x31A JUMP JUMPDEST PUSH2 0xC9 JUMP JUMPDEST DUP1 PUSH2 0x132 PUSH2 0x13C SWAP3 PUSH1 0x5 SHL DUP5 ADD CALLDATALOAD PUSH2 0x376 JUMP JUMPDEST PUSH2 0x114 DUP3 DUP9 PUSH2 0x33F JUMP JUMPDEST PUSH2 0x8D JUMP JUMPDEST DUP5 MLOAD PUSH3 0x461BCD PUSH1 0xE5 SHL DUP2 MSTORE PUSH1 0x20 DUP2 DUP9 ADD MSTORE PUSH1 0x1F PUSH1 0x24 DUP3 ADD MSTORE PUSH32 0x4646544469726563743A206E206D75737420626520706F776572206F66203200 PUSH1 0x44 DUP3 ADD MSTORE PUSH1 0x64 SWAP1 REVERT JUMPDEST POP PUSH1 0x0 NOT DUP3 ADD DUP3 DUP2 GT PUSH2 0x199 JUMPI DUP3 AND ISZERO PUSH2 0x57 JUMP JUMPDEST PUSH4 0x4E487B71 PUSH1 0xE0 SHL DUP5 MSTORE PUSH1 0x11 DUP8 MSTORE PUSH1 0x24 DUP5 REVERT JUMPDEST DUP1 REVERT JUMPDEST SWAP3 SWAP2 SWAP1 POP CALLVALUE PUSH2 0x1AC JUMPI PUSH2 0x1C1 CALLDATASIZE PUSH2 0x278 JUMP JUMPDEST SWAP5 SWAP1 SWAP4 GAS PUSH4 0x1E2D8E45 PUSH1 0xE3 SHL DUP3 MSTORE PUSH1 0x20 DUP4 DUP4 ADD DUP2 SWAP1 MSTORE PUSH1 0x24 DUP4 ADD DUP9 SWAP1 MSTORE SWAP7 SWAP1 SWAP6 SWAP1 PUSH1 0x1 PUSH1 0x1 PUSH1 0xFB SHL SUB DUP2 GT PUSH2 0x274 JUMPI PUSH1 0x44 DUP4 DUP10 SWAP4 DUP2 SWAP4 PUSH1 0x5 SHL DUP1 SWAP2 DUP5 DUP5 ADD CALLDATACOPY DUP2 ADD SUB ADD DUP2 ADDRESS GAS STATICCALL DUP1 ISZERO PUSH2 0x26A JUMPI SWAP1 DUP7 SWAP2 PUSH2 0x23D JUMPI JUMPDEST POP POP GAS DUP5 SUB SWAP4 DUP5 GT PUSH2 0x22A JUMPI POP POP MLOAD SWAP1 DUP2 MSTORE RETURN JUMPDEST PUSH4 0x4E487B71 PUSH1 0xE0 SHL DUP3 MSTORE PUSH1 0x11 SWAP1 MSTORE PUSH1 0x24 SWAP1 REVERT JUMPDEST DUP2 RETURNDATASIZE DUP4 GT PUSH2 0x263 JUMPI JUMPDEST PUSH2 0x250 DUP2 DUP4 PUSH2 0x2CA JUMP JUMPDEST DUP2 ADD SUB SLT PUSH2 0x25F JUMPI DUP5 CODESIZE PUSH2 0x216 JUMP JUMPDEST POP DUP1 REVERT JUMPDEST POP RETURNDATASIZE PUSH2 0x246 JUMP JUMPDEST DUP5 MLOAD RETURNDATASIZE DUP6 DUP3 RETURNDATACOPY RETURNDATASIZE SWAP1 REVERT JUMPDEST DUP5 DUP1 REVERT JUMPDEST SWAP1 PUSH1 0x20 PUSH1 0x3 NOT DUP4 ADD SLT PUSH2 0x2C5 JUMPI PUSH1 0x4 CALLDATALOAD PUSH8 0xFFFFFFFFFFFFFFFF SWAP3 DUP4 DUP3 GT PUSH2 0x2C5 JUMPI DUP1 PUSH1 0x23 DUP4 ADD SLT ISZERO PUSH2 0x2C5 JUMPI DUP2 PUSH1 0x4 ADD CALLDATALOAD SWAP4 DUP5 GT PUSH2 0x2C5 JUMPI PUSH1 0x24 DUP5 PUSH1 0x5 SHL DUP4 ADD ADD GT PUSH2 0x2C5 JUMPI PUSH1 0x24 ADD SWAP2 SWAP1 JUMP JUMPDEST PUSH1 0x0 DUP1 REVERT JUMPDEST SWAP1 PUSH1 0x1F DUP1 NOT SWAP2 ADD AND DUP2 ADD SWAP1 DUP2 LT PUSH8 0xFFFFFFFFFFFFFFFF DUP3 GT OR PUSH2 0x2EC JUMPI PUSH1 0x40 MSTORE JUMP JUMPDEST PUSH4 0x4E487B71 PUSH1 0xE0 SHL PUSH1 0x0 MSTORE PUSH1 0x41 PUSH1 0x4 MSTORE PUSH1 0x24 PUSH1 0x0 REVERT JUMPDEST PUSH8 0xFFFFFFFFFFFFFFFF DUP2 GT PUSH2 0x2EC JUMPI PUSH1 0x5 SHL PUSH1 0x20 ADD SWAP1 JUMP JUMPDEST PUSH1 0x0 NOT DUP2 EQ PUSH2 0x329 JUMPI PUSH1 0x1 ADD SWAP1 JUMP JUMPDEST PUSH4 0x4E487B71 PUSH1 0xE0 SHL PUSH1 0x0 MSTORE PUSH1 0x11 PUSH1 0x4 MSTORE PUSH1 0x24 PUSH1 0x0 REVERT JUMPDEST DUP1 MLOAD DUP3 LT ISZERO PUSH2 0x353 JUMPI PUSH1 0x20 SWAP2 PUSH1 0x5 SHL ADD ADD SWAP1 JUMP JUMPDEST PUSH4 0x4E487B71 PUSH1 0xE0 SHL PUSH1 0x0 MSTORE PUSH1 0x32 PUSH1 0x4 MSTORE PUSH1 0x24 PUSH1 0x0 REVERT JUMPDEST SWAP2 SWAP1 DUP3 ADD DUP1 SWAP3 GT PUSH2 0x329 JUMPI JUMP JUMPDEST PUSH1 0x1 PUSH8 0x800000000000011 PUSH1 0xC0 SHL ADD DUP1 DUP3 LT ISZERO PUSH2 0x391 JUMPI POP SWAP1 JUMP JUMPDEST SWAP1 MOD SWAP1 JUMP INVALID LOG2 PUSH5 0x6970667358 0x22 SLT KECCAK256 0xCA 0xDA 0x2C 0xBE 0xE1 PUSH22 0x9C889CFEBD23BFE804AF022B0028CF9D774160026831 PUSH16 0x92209864736F6C634300081300330000 "},"methodIdentifiers":{"fft(uint256[])":"f16c7228","fftGas(uint256[])":"46e77ab1"}}}}}