{"contracts/FFTVerifier.sol":{"FFTVerifier":{"abi":[{"inputs":[{"internalType":"uint256[]","name":"input","type":"uint256[]"},{"internalType":"uint256","name":"output","type":"uint256"},{"internalType":"uint256[]","name":"g0","type":"uint256[]"},{"internalType":"uint256[]","name":"g1","type":"uint256[]"},{"internalType":"uint256[]","name":"g2","type":"uint256[]"},{"internalType":"uint256[]","name":"roundCounts","type":"uint256[]"}],"name":"verifyFull","outputs":[{"internalType":"bool","name":"","type":"bool"}],"stateMutability":"pure","type":"function"},{"inputs":[{"internalType":"bytes32","name":"inputCommitment","type":"bytes32"},{"internalType":"uint256","name":"output","type":"uint256"},{"internalType":"uint256[]","name":"g0","type":"uint256[]"},{"internalType":"uint256[]","name":"g1","type":"uint256[]"},{"internalType":"uint256[]","name":"g2","type":"uint256[]"},{"internalType":"uint256[]","name":"roundCounts","type":"uint256[]"},{"internalType":"uint256[]","name":"vaVb","type":"uint256[]"},{"internalType":"uint256[]","name":"nextClaimed","type":"uint256[]"}],"name":"verifyWithIPFS","outputs":[{"internalType":"bool","name":"","type":"bool"}],"stateMutability":"pure","type":"function"}],"evm":{"bytecode":{"linkReferences":{},"object":"6080806040523461001657611c6f908161001c8239f35b600080fdfe61036060405260048036101561001457600080fd5b6000803560e01c806305e2a262146100fe57631d7fdb361461003557600080fd5b346100ef5760c03660031901126100ef5767ffffffffffffffff82358181116100fa5761006590369085016101d8565b9290936044358381116100fa5761007f90369083016101d8565b6064929192358581116100f65761009990369084016101d8565b9390926084358781116100f2576100b390369083016101d8565b97909660a4359182116100ef5760206100e58c8c8c8c8c8c8c8c6100d9368d8f016101d8565b9890976024359161039d565b6040519015158152f35b80fd5b8680fd5b8480fd5b8280fd5b5090346101d4576101003660031901126101d45767ffffffffffffffff6044358181116101d05761013290369084016101d8565b9390926064358381116100fa5761014c90369083016101d8565b6084929192358581116100f65761016690369084016101d8565b9160a4358781116100f25761017e90369086016101d8565b95909460c4358981116101cc5761019890369083016101d8565b99909860e4359182116100ef5760206100e58e8e8e8e8e8e8e8e8e8e6101c18f8f3691016101d8565b9a90996024356112a0565b8880fd5b8380fd5b5080fd5b9181601f840112156102095782359167ffffffffffffffff8311610209576020808501948460051b01011161020957565b600080fd5b60001981019190821161021d57565b634e487b7160e01b600052601160045260246000fd5b9190820391821161021d57565b600019811461021d5760010190565b67ffffffffffffffff81116102675760051b60200190565b634e487b7160e01b600052604160045260246000fd5b906102878261024f565b60405190601f1990601f018116820167ffffffffffffffff811183821017610267576040528382526102b9829461024f565b0190602036910137565b8051156102d05760200190565b634e487b7160e01b600052603260045260246000fd5b80518210156102d05760209160051b010190565b91908110156102d05760051b0190565b906385ebca6b820180921161021d57565b906001820180921161021d57565b6001601160c01b01600160fb1b019081019190821061021d57565b9190820180921161021d57565b1561035857565b60405162461bcd60e51b815260206004820152601960248201527f46465456657269666965723a2070726f6f66206c656e677468000000000000006044820152606490fd5b9a979893909592969994919a61020052856101a05260e052610260526101e052610320526103005260028110159081610bf6575b5015610bb1576000610280526101a051805b610b98575060001980610180526102805190810190811161021d576103005103610b53576104136102805161027d565b6101205260005b6102805181101561048a57600180821b908111610451575061044c9060015b61044682610120516102e6565b52610240565b61041a565b61018051810190811161021d57906000825b6104715761044c9250610439565b610481919260011c918291610240565b91929190610463565b5090919293600061024052926104ab6104a5610120516102c3565b5161027d565b61010052610240515b6101005180518210156104d957906104d4916104468261024051926102e6565b6104b4565b50509192909261024051610220525b6102805161018051810190811161021d576102205190811015610b35576105169061030051610320516102fa565b358060805261052b60e0519161024051610344565b111580610b27575b80610b1c575b61054290610351565b6105796105746105586102405160e051886102fa565b3561056d610240516101e051610260516102fa565b3590610344565b611a05565b918203610b1257600161034052819061059360805161027d565b6102c05260005b608051811015610652576105bd6105b48261024051610344565b60e051886102fa565b35926105dc6105cf8361024051610344565b6101e051610260516102fa565b35906105f56105ee8461024051610344565b888b6102fa565b35956106046105748488610344565b03610644578161062161063f949387610631946103405190610c0c565b9687916000610340528297611ad8565b94610446826102c0516102e6565b61059a565b505050945050505050600090565b50939492905061066760805161024051610344565b6102405261067b61022051610120516102e6565b51926106956106906001196080511686610344565b61027d565b95600060a0525b60a051858110156106d5576106b490610100516102e6565b516106c160a051896102e6565b526106cd60a051610240565b60a05261069c565b5090919594929395600060c0525b60805160011c60c0519081101561076757610701906102c0516102e6565b5161071761071160c0518a610344565b886102e6565b5261073561072c60c05160805160011c610344565b6102c0516102e6565b5161075361071160c05161074e60805160011c8c610344565b610344565b5261075f60c051610240565b60c0526106e3565b5092959461077c919560805160011c91610c74565b9361078b60805160011c61027d565b6101c05261079d60805160011c61027d565b6102e05260005b60805160011c8110156107f657806107c26107f1926102c0516102e6565b516107d0826101c0516102e6565b526107e361072c8260805160011c610344565b51610446826102e0516102e6565b6107a4565b509394919290946102205160018101811161021d57610120516101a051610200516101c0516108279460010161112e565b90610863610574600167080000000000001160c01b019361085d610120516101a051610200516102e0516001610220510161112e565b90610344565b900903610b095761087d60016102205101610120516102e6565b51610160526000806102a0525b60805160011c6102a05190811080610b04575b156109f6576108af906101c0516102e6565b516102a051808060051b046020148115171561021d5760019060051b6002815b6109b857506108f6936105749390926001601160c01b01600160fb1b019250900990610344565b6109066102a0516102e0516102e6565b516101405261091d6102a05160805160011c610344565b808060051b046020148115171561021d5760019060051b6002815b61097a57505061014051610963926105749290916001601160c01b01600160fb1b0191900990610344565b936109706102a051610240565b6102a0529361088a565b6001821661099f575b6001601160c01b01600160fb1b019080099060011c9081610938565b916001601160c01b01600160fb1b019083900991610983565b600182166109dd575b6001601160c01b01600160fb1b019080099060011c90816108cf565b916001601160c01b01600160fb1b0190839009916109c1565b50919390929091610a2090610574906001601160c01b01600160fb1b0190639e3779b1900961030a565b6001601160c01b01600160fb1b018110610afe576001601160c01b01600160fb1b019006935b610a526101605161027d565b6101005260005b61016051811015610ac457610aba90610a88610574826001601160c01b01600160fb1b01620f42408b09610344565b6001601160c01b01600160fb1b018110610abf576001601160c01b01600160fb1b0190065b61044682610100516102e6565b610a59565b610aad565b5091935091610ae8610120516101a05161020051610100516001610220510161112e565b90610af561022051610240565b610220526104e8565b93610a46565b61089d565b92505050600090565b9350505050600090565b5060e0518314610539565b5060e0516101e05114610533565b509350915050610b4f610100516101a05161020051610f69565b1490565b60405162461bcd60e51b815260206004820152601c60248201527f46465456657269666965723a20726f756e64436f756e7473206c656e000000006044820152606490fd5b610ba461028051610240565b6102805260011c806103e3565b60405162461bcd60e51b815260206004820152601d60248201527f46465456657269666965723a206e206e6f7420706f776572206f6620320000006044820152606490fd5b6000198101915080821161021d571615386103d1565b610574620f42409461074e610574610c4794639e3779b196600014610c6f575b6001601160c01b01600160fb1b019889988991900990610344565b096385ebca6b810180911161021d57610c5f90611a05565b818110610c6a570690565b905090565b610c2c565b80519291906001600160ff1b038316830361021d57600193610c9884861b84610344565b11610f2457839160005b818110610e77575080841115610d9857610cc5610cbf8280610344565b836102e6565b516001601160c01b01600160fb1b019590860386811161021d5781810180911161021d57869081610d03610cfd8661074e8b82610344565b876102e6565b519106099481830180841161021d57939291905b808510610d275750505050500990565b9091929395610d3f610d398886610344565b866102e6565b5188039088821161021d5783820180921161021d57610d65610cfd8961074e8689610344565b5189039189831161021d5784830180931161021d578980928180610d8f9606930690090996610240565b93929190610d17565b90919281151594858096610e58575b610e4d578515610e4757610dbb8380610344565b600019810190811161021d57610dd190856102e6565b516001601160c01b01600160fb1b01919082039082821161021d57810180911161021d5706945b60009015610e3d57509061074e610e0f9282610344565b600019810190811161021d57610e24916102e6565b51905b6001601160c01b01600160fb1b01928391090990565b9250505090610e27565b94610df8565b505050505050600090565b50600019830183811161021d57610e6f90856102e6565b511515610da7565b92610e8284846102e6565b5190610e97610e918685610344565b856102e6565b5190610eaa610d398761074e8a88610344565b516001601160c01b01600160fb1b01848103949093919084861161021d578a860180961161021d578285039185831161021d578b830180931161021d578086039086821161021d578c820180921161021d5786610f17958180948161057498610f1f9d0909940909610344565b900993610240565b610ca2565b60405162461bcd60e51b815260206004820152601c60248201527f46465456657269666965723a20706f696e7420746f6f2073686f7274000000006044820152606490fd5b82519260019283851b918282036110a4576000958695939493600019820182811194939291905b878910610fa35750505050505050505090565b90919293949596979887838b60005b8a88821061100557505092610ff29261057492610feb610fe5610ff8978d600167080000000000001160c01b01956102fa565b35611a05565b0990610344565b99610240565b9796959493929190610f90565b9150925061021d5784808d61101a8588610233565b1c1614600090600014611057575061104e9061103683896102e6565b515b6001601160c01b01600160fb1b01910991610240565b908b8a92610fb2565b61106183896102e6565b516001601160c01b01600160fb1b01908103919082116110905786820180921161109057509061104e91611038565b634e487b7160e01b81526011600452602490fd5b60405162461bcd60e51b815260206004820152601960248201527f46465456657269666965723a20696e707574206c656e677468000000000000006044820152606490fd5b156110f057565b60405162461bcd60e51b815260206004820152601660248201527523232a2b32b934b334b2b91d103837b4b73a103632b760511b6044820152606490fd5b939192909261113d85846102e6565b519361114b858251146110e9565b611155845161020e565b86146112915783838361117061116a8a61031b565b846102e6565b519761117b8161031b565b906111858a61027d565b9561118f8b61027d565b9a808410159360005b8281106111d1575050505050506111b7936111b28a61031b565b61112e565b936111b26111c5959661031b565b6111ce916119f8565b90565b9194975092955061122c91945086600014611251578b6111f58261074e8787610233565b828882108b6000838315611247576112199150611212868d6102e6565b51926102e6565b521561123a5761121261044692896102e6565b928995928995928995611198565b61044691506001926102e6565b61121991926102e6565b8b888261125e8688610233565b81101561127c576000928361127683610446956102e6565b526102e6565b50506111f561128b8587610233565b83610233565b93509091506111ce9350610f69565b9b95919c9a949893999692909c610320526102e0526102a05261010052846101e052610180528261012052610300526102605260018201821161021d576001600160ff1b038216820361021d578160011b116119bb576101e05161026051106119765761130f6001820161027d565b6103405260005b600182018110611902575050600093916113356104a5610340516102c3565b61028052846101a0525b610280518051906101a0519182101561137357869161135d916102e6565b5261136a6101a051610240565b6101a05261133f565b5050919490939293839484610220525b6101e0516102205190808210156118f4576113c0916113a591610100516102fa565b3580610160526113b9610320519188610344565b1115610351565b6113e36105746113d48761032051876102fa565b3561056d88886102e0516102fa565b9687036118e85760019187936113fb6101605161027d565b986000905b610160518210156114b557611422611418838b610344565b61032051856102fa565b359561143b611431848c610344565b8a6102e0516102fa565b359761145461144a858d610344565b6102a051886102fa565b35926114636105748b8b610344565b036114a35791610446846114938f9b9a99989796948b8b6114879261149999610c0c565b809460009c829c611ad8565b9a6102e6565b9091929395611400565b50505050505095505050505050600090565b945050919350946114ca906101605190610344565b6114da61022051610340516102e6565b51956114f0610690600119610160511689610344565b9560005b8881106118c7575060005b8a6101605160011c82101561156c5790896104466115618361074e611552878f61154161152f866115679c6102e6565b519161153b878b610344565b906102e6565b5261153b846101605160011c610344565b51946101605160011c90610344565b8b6102e6565b6114ff565b505095611586919798939492986101605160011c91610c74565b6115978361012051610180516102fa565b35906001840180851161021d576115b59061012051610180516102fa565b35936002810180911161021d57936001601160c01b01600160fb1b01926115df9161057491610344565b9009036118bb576115f56101605160011c61027d565b610240526116086101605160011c61027d565b6101405260005b6101605160011c811015611666578061162b611661928a6102e6565b5161163982610240516102e6565b5261165361164d826101605160011c610344565b8a6102e6565b5161044682610140516102e6565b61160f565b50919395509193610220516001810180911161021d5761168990610340516102e6565b516101c05260006102005260006102c0525b6101605160011c6102c051908110806118b6575b1561177f576116c190610240516102e6565b516102c0519060059082821b9060209380830485149015171561021d5761170991610574916001601160c01b01600160fb1b01916116fe90611a24565b900961020051610344565b6117196102c051610140516102e6565b519161172e6102c0516101605160011c610344565b80911b93818504149015171561021d5761176692610574926001601160c01b01600160fb1b019161175e90611a24565b900990610344565b610200526117766102c051610240565b6102c05261169b565b50909192936117a8610574600167080000000000001160c01b01639e3779b1610200510961030a565b6001601160c01b01600160fb1b0181106118b0576001601160c01b01600160fb1b019006955b6117da6101c05161027d565b6102805260005b6101c05181101561187a5761184890611810610574826001601160c01b01600160fb1b01620f42408d09610344565b61181d82610280516102e6565b52610280516001601160c01b01600160fb1b019061183c9083906102e6565b51101561184d57610240565b6117e1565b610280516001601160c01b01600160fb1b019061186b9083906102e6565b510661044682610280516102e6565b509193955091936118956102205161026051610300516102fa565b35916118a361022051610240565b6102205290959195611383565b956117ce565b6116af565b50509350505050600090565b806118d86118e392610280516102e6565b51610446828b6102e6565b6114f4565b95505050505050600090565b505095505050505050600190565b6000600180831b90811161192e575050611927600191825b61044682610340516102e6565b9050611316565b600019810190811161196257805b61194d57506001916119279161191a565b60011c90819061195c90610240565b9161193c565b634e487b7160e01b82526011600452602482fd5b60405162461bcd60e51b815260206004820152601c60248201527f46465456657269666965723a206e657874436c61696d6564206c656e000000006044820152606490fd5b60405162461bcd60e51b815260206004820152601560248201527423232a2b32b934b334b2b91d103b30ab31103632b760591b6044820152606490fd5b6111ce9161057491610344565b6001601160c01b01600160fb1b0180821015611a1f575090565b900690565b600190816002825b611a365750505090565b818316611a59575b6001601160c01b01600160fb1b0190800991811c9182611a2c565b926001601160c01b01600160fb1b019084900992611a3e565b6001600167080000000000001160c01b038167080000000000001160c01b825b611a9c5750505090565b818316611abf575b6001601160c01b01600160fb1b0190800991811c9182611a92565b926001601160c01b01600160fb1b019084900992611aa4565b9190611ae384610329565b600019810190811161021d57611af890611a05565b93611b0281610329565b600119810190811161021d57611b1790611a05565b91611b20611a72565b95600191600167080000000000001160c01b0380805b611bfb57506001989050600167080000000000001160c01b036002815b611bbd57505091610574979593916001611bb061057488966111ce9d9b998467080000000000001160c01b019b8c8b8180809e9c81809e9c81809e9981809b81611b9b611a72565b60010992090990099709918b09099009610344565b9809920909900990610344565b60018216611be2575b6001601160c01b01600160fb1b019080099060011c9081611b53565b996001601160c01b01600160fb1b01908b900999611bc6565b60018216611c20575b6001601160c01b01600160fb1b019080099060011c9081611b36565b936001601160c01b01600160fb1b019085900993611c0456fea264697066735822122058ffc0f874c46d03f4015b1d9249faf2dd7306969f17daa32e0aa48194129de564736f6c63430008130033","opcodes":"PUSH1 0x80 DUP1 PUSH1 0x40 MSTORE CALLVALUE PUSH2 0x16 JUMPI PUSH2 0x1C6F SWAP1 DUP2 PUSH2 0x1C DUP3 CODECOPY RETURN JUMPDEST PUSH1 0x0 DUP1 REVERT INVALID PUSH2 0x360 PUSH1 0x40 MSTORE PUSH1 0x4 DUP1 CALLDATASIZE LT ISZERO PUSH2 0x14 JUMPI PUSH1 0x0 DUP1 REVERT JUMPDEST PUSH1 0x0 DUP1 CALLDATALOAD PUSH1 0xE0 SHR DUP1 PUSH4 0x5E2A262 EQ PUSH2 0xFE JUMPI PUSH4 0x1D7FDB36 EQ PUSH2 0x35 JUMPI PUSH1 0x0 DUP1 REVERT JUMPDEST CALLVALUE PUSH2 0xEF JUMPI PUSH1 0xC0 CALLDATASIZE PUSH1 0x3 NOT ADD SLT PUSH2 0xEF JUMPI PUSH8 0xFFFFFFFFFFFFFFFF DUP3 CALLDATALOAD DUP2 DUP2 GT PUSH2 0xFA JUMPI PUSH2 0x65 SWAP1 CALLDATASIZE SWAP1 DUP6 ADD PUSH2 0x1D8 JUMP JUMPDEST SWAP3 SWAP1 SWAP4 PUSH1 0x44 CALLDATALOAD DUP4 DUP2 GT PUSH2 0xFA JUMPI PUSH2 0x7F SWAP1 CALLDATASIZE SWAP1 DUP4 ADD PUSH2 0x1D8 JUMP JUMPDEST PUSH1 0x64 SWAP3 SWAP2 SWAP3 CALLDATALOAD DUP6 DUP2 GT PUSH2 0xF6 JUMPI PUSH2 0x99 SWAP1 CALLDATASIZE SWAP1 DUP5 ADD PUSH2 0x1D8 JUMP JUMPDEST SWAP4 SWAP1 SWAP3 PUSH1 0x84 CALLDATALOAD DUP8 DUP2 GT PUSH2 0xF2 JUMPI PUSH2 0xB3 SWAP1 CALLDATASIZE SWAP1 DUP4 ADD PUSH2 0x1D8 JUMP JUMPDEST SWAP8 SWAP1 SWAP7 PUSH1 0xA4 CALLDATALOAD SWAP2 DUP3 GT PUSH2 0xEF JUMPI PUSH1 0x20 PUSH2 0xE5 DUP13 DUP13 DUP13 DUP13 DUP13 DUP13 DUP13 DUP13 PUSH2 0xD9 CALLDATASIZE DUP14 DUP16 ADD PUSH2 0x1D8 JUMP JUMPDEST SWAP9 SWAP1 SWAP8 PUSH1 0x24 CALLDATALOAD SWAP2 PUSH2 0x39D JUMP JUMPDEST PUSH1 0x40 MLOAD SWAP1 ISZERO ISZERO DUP2 MSTORE RETURN JUMPDEST DUP1 REVERT JUMPDEST DUP7 DUP1 REVERT JUMPDEST DUP5 DUP1 REVERT JUMPDEST DUP3 DUP1 REVERT JUMPDEST POP SWAP1 CALLVALUE PUSH2 0x1D4 JUMPI PUSH2 0x100 CALLDATASIZE PUSH1 0x3 NOT ADD SLT PUSH2 0x1D4 JUMPI PUSH8 0xFFFFFFFFFFFFFFFF PUSH1 0x44 CALLDATALOAD DUP2 DUP2 GT PUSH2 0x1D0 JUMPI PUSH2 0x132 SWAP1 CALLDATASIZE SWAP1 DUP5 ADD PUSH2 0x1D8 JUMP JUMPDEST SWAP4 SWAP1 SWAP3 PUSH1 0x64 CALLDATALOAD DUP4 DUP2 GT PUSH2 0xFA JUMPI PUSH2 0x14C SWAP1 CALLDATASIZE SWAP1 DUP4 ADD PUSH2 0x1D8 JUMP JUMPDEST PUSH1 0x84 SWAP3 SWAP2 SWAP3 CALLDATALOAD DUP6 DUP2 GT PUSH2 0xF6 JUMPI PUSH2 0x166 SWAP1 CALLDATASIZE SWAP1 DUP5 ADD PUSH2 0x1D8 JUMP JUMPDEST SWAP2 PUSH1 0xA4 CALLDATALOAD DUP8 DUP2 GT PUSH2 0xF2 JUMPI PUSH2 0x17E SWAP1 CALLDATASIZE SWAP1 DUP7 ADD PUSH2 0x1D8 JUMP JUMPDEST SWAP6 SWAP1 SWAP5 PUSH1 0xC4 CALLDATALOAD DUP10 DUP2 GT PUSH2 0x1CC JUMPI PUSH2 0x198 SWAP1 CALLDATASIZE SWAP1 DUP4 ADD PUSH2 0x1D8 JUMP JUMPDEST SWAP10 SWAP1 SWAP9 PUSH1 0xE4 CALLDATALOAD SWAP2 DUP3 GT PUSH2 0xEF JUMPI PUSH1 0x20 PUSH2 0xE5 DUP15 DUP15 DUP15 DUP15 DUP15 DUP15 DUP15 DUP15 DUP15 DUP15 PUSH2 0x1C1 DUP16 DUP16 CALLDATASIZE SWAP2 ADD PUSH2 0x1D8 JUMP JUMPDEST SWAP11 SWAP1 SWAP10 PUSH1 0x24 CALLDATALOAD PUSH2 0x12A0 JUMP JUMPDEST DUP9 DUP1 REVERT JUMPDEST DUP4 DUP1 REVERT JUMPDEST POP DUP1 REVERT JUMPDEST SWAP2 DUP2 PUSH1 0x1F DUP5 ADD SLT ISZERO PUSH2 0x209 JUMPI DUP3 CALLDATALOAD SWAP2 PUSH8 0xFFFFFFFFFFFFFFFF DUP4 GT PUSH2 0x209 JUMPI PUSH1 0x20 DUP1 DUP6 ADD SWAP5 DUP5 PUSH1 0x5 SHL ADD ADD GT PUSH2 0x209 JUMPI JUMP JUMPDEST PUSH1 0x0 DUP1 REVERT JUMPDEST PUSH1 0x0 NOT DUP2 ADD SWAP2 SWAP1 DUP3 GT PUSH2 0x21D JUMPI JUMP JUMPDEST PUSH4 0x4E487B71 PUSH1 0xE0 SHL PUSH1 0x0 MSTORE PUSH1 0x11 PUSH1 0x4 MSTORE PUSH1 0x24 PUSH1 0x0 REVERT JUMPDEST SWAP2 SWAP1 DUP3 SUB SWAP2 DUP3 GT PUSH2 0x21D JUMPI JUMP JUMPDEST PUSH1 0x0 NOT DUP2 EQ PUSH2 0x21D JUMPI PUSH1 0x1 ADD SWAP1 JUMP JUMPDEST PUSH8 0xFFFFFFFFFFFFFFFF DUP2 GT PUSH2 0x267 JUMPI PUSH1 0x5 SHL PUSH1 0x20 ADD SWAP1 JUMP JUMPDEST PUSH4 0x4E487B71 PUSH1 0xE0 SHL PUSH1 0x0 MSTORE PUSH1 0x41 PUSH1 0x4 MSTORE PUSH1 0x24 PUSH1 0x0 REVERT JUMPDEST SWAP1 PUSH2 0x287 DUP3 PUSH2 0x24F JUMP JUMPDEST PUSH1 0x40 MLOAD SWAP1 PUSH1 0x1F NOT SWAP1 PUSH1 0x1F ADD DUP2 AND DUP3 ADD PUSH8 0xFFFFFFFFFFFFFFFF DUP2 GT DUP4 DUP3 LT OR PUSH2 0x267 JUMPI PUSH1 0x40 MSTORE DUP4 DUP3 MSTORE PUSH2 0x2B9 DUP3 SWAP5 PUSH2 0x24F JUMP JUMPDEST ADD SWAP1 PUSH1 0x20 CALLDATASIZE SWAP2 ADD CALLDATACOPY JUMP JUMPDEST DUP1 MLOAD ISZERO PUSH2 0x2D0 JUMPI PUSH1 0x20 ADD SWAP1 JUMP JUMPDEST PUSH4 0x4E487B71 PUSH1 0xE0 SHL PUSH1 0x0 MSTORE PUSH1 0x32 PUSH1 0x4 MSTORE PUSH1 0x24 PUSH1 0x0 REVERT JUMPDEST DUP1 MLOAD DUP3 LT ISZERO PUSH2 0x2D0 JUMPI PUSH1 0x20 SWAP2 PUSH1 0x5 SHL ADD ADD SWAP1 JUMP JUMPDEST SWAP2 SWAP1 DUP2 LT ISZERO PUSH2 0x2D0 JUMPI PUSH1 0x5 SHL ADD SWAP1 JUMP JUMPDEST SWAP1 PUSH4 0x85EBCA6B DUP3 ADD DUP1 SWAP3 GT PUSH2 0x21D JUMPI JUMP JUMPDEST SWAP1 PUSH1 0x1 DUP3 ADD DUP1 SWAP3 GT PUSH2 0x21D JUMPI JUMP JUMPDEST PUSH1 0x1 PUSH1 0x11 PUSH1 0xC0 SHL ADD PUSH1 0x1 PUSH1 0xFB SHL ADD SWAP1 DUP2 ADD SWAP2 SWAP1 DUP3 LT PUSH2 0x21D JUMPI JUMP JUMPDEST SWAP2 SWAP1 DUP3 ADD DUP1 SWAP3 GT PUSH2 0x21D JUMPI JUMP JUMPDEST ISZERO PUSH2 0x358 JUMPI JUMP JUMPDEST PUSH1 0x40 MLOAD PUSH3 0x461BCD PUSH1 0xE5 SHL DUP2 MSTORE PUSH1 0x20 PUSH1 0x4 DUP3 ADD MSTORE PUSH1 0x19 PUSH1 0x24 DUP3 ADD MSTORE PUSH32 0x46465456657269666965723A2070726F6F66206C656E67746800000000000000 PUSH1 0x44 DUP3 ADD MSTORE PUSH1 0x64 SWAP1 REVERT JUMPDEST SWAP11 SWAP8 SWAP9 SWAP4 SWAP1 SWAP6 SWAP3 SWAP7 SWAP10 SWAP5 SWAP2 SWAP11 PUSH2 0x200 MSTORE DUP6 PUSH2 0x1A0 MSTORE PUSH1 0xE0 MSTORE PUSH2 0x260 MSTORE PUSH2 0x1E0 MSTORE PUSH2 0x320 MSTORE PUSH2 0x300 MSTORE PUSH1 0x2 DUP2 LT ISZERO SWAP1 DUP2 PUSH2 0xBF6 JUMPI JUMPDEST POP ISZERO PUSH2 0xBB1 JUMPI PUSH1 0x0 PUSH2 0x280 MSTORE PUSH2 0x1A0 MLOAD DUP1 JUMPDEST PUSH2 0xB98 JUMPI POP PUSH1 0x0 NOT DUP1 PUSH2 0x180 MSTORE PUSH2 0x280 MLOAD SWAP1 DUP2 ADD SWAP1 DUP2 GT PUSH2 0x21D JUMPI PUSH2 0x300 MLOAD SUB PUSH2 0xB53 JUMPI PUSH2 0x413 PUSH2 0x280 MLOAD PUSH2 0x27D JUMP JUMPDEST PUSH2 0x120 MSTORE PUSH1 0x0 JUMPDEST PUSH2 0x280 MLOAD DUP2 LT ISZERO PUSH2 0x48A JUMPI PUSH1 0x1 DUP1 DUP3 SHL SWAP1 DUP2 GT PUSH2 0x451 JUMPI POP PUSH2 0x44C SWAP1 PUSH1 0x1 JUMPDEST PUSH2 0x446 DUP3 PUSH2 0x120 MLOAD PUSH2 0x2E6 JUMP JUMPDEST MSTORE PUSH2 0x240 JUMP JUMPDEST PUSH2 0x41A JUMP JUMPDEST PUSH2 0x180 MLOAD DUP2 ADD SWAP1 DUP2 GT PUSH2 0x21D JUMPI SWAP1 PUSH1 0x0 DUP3 JUMPDEST PUSH2 0x471 JUMPI PUSH2 0x44C SWAP3 POP PUSH2 0x439 JUMP JUMPDEST PUSH2 0x481 SWAP2 SWAP3 PUSH1 0x1 SHR SWAP2 DUP3 SWAP2 PUSH2 0x240 JUMP JUMPDEST SWAP2 SWAP3 SWAP2 SWAP1 PUSH2 0x463 JUMP JUMPDEST POP SWAP1 SWAP2 SWAP3 SWAP4 PUSH1 0x0 PUSH2 0x240 MSTORE SWAP3 PUSH2 0x4AB PUSH2 0x4A5 PUSH2 0x120 MLOAD PUSH2 0x2C3 JUMP JUMPDEST MLOAD PUSH2 0x27D JUMP JUMPDEST PUSH2 0x100 MSTORE PUSH2 0x240 MLOAD JUMPDEST PUSH2 0x100 MLOAD DUP1 MLOAD DUP3 LT ISZERO PUSH2 0x4D9 JUMPI SWAP1 PUSH2 0x4D4 SWAP2 PUSH2 0x446 DUP3 PUSH2 0x240 MLOAD SWAP3 PUSH2 0x2E6 JUMP JUMPDEST PUSH2 0x4B4 JUMP JUMPDEST POP POP SWAP2 SWAP3 SWAP1 SWAP3 PUSH2 0x240 MLOAD PUSH2 0x220 MSTORE JUMPDEST PUSH2 0x280 MLOAD PUSH2 0x180 MLOAD DUP2 ADD SWAP1 DUP2 GT PUSH2 0x21D JUMPI PUSH2 0x220 MLOAD SWAP1 DUP2 LT ISZERO PUSH2 0xB35 JUMPI PUSH2 0x516 SWAP1 PUSH2 0x300 MLOAD PUSH2 0x320 MLOAD PUSH2 0x2FA JUMP JUMPDEST CALLDATALOAD DUP1 PUSH1 0x80 MSTORE PUSH2 0x52B PUSH1 0xE0 MLOAD SWAP2 PUSH2 0x240 MLOAD PUSH2 0x344 JUMP JUMPDEST GT ISZERO DUP1 PUSH2 0xB27 JUMPI JUMPDEST DUP1 PUSH2 0xB1C JUMPI JUMPDEST PUSH2 0x542 SWAP1 PUSH2 0x351 JUMP JUMPDEST PUSH2 0x579 PUSH2 0x574 PUSH2 0x558 PUSH2 0x240 MLOAD PUSH1 0xE0 MLOAD DUP9 PUSH2 0x2FA JUMP JUMPDEST CALLDATALOAD PUSH2 0x56D PUSH2 0x240 MLOAD PUSH2 0x1E0 MLOAD PUSH2 0x260 MLOAD PUSH2 0x2FA JUMP JUMPDEST CALLDATALOAD SWAP1 PUSH2 0x344 JUMP JUMPDEST PUSH2 0x1A05 JUMP JUMPDEST SWAP2 DUP3 SUB PUSH2 0xB12 JUMPI PUSH1 0x1 PUSH2 0x340 MSTORE DUP2 SWAP1 PUSH2 0x593 PUSH1 0x80 MLOAD PUSH2 0x27D JUMP JUMPDEST PUSH2 0x2C0 MSTORE PUSH1 0x0 JUMPDEST PUSH1 0x80 MLOAD DUP2 LT ISZERO PUSH2 0x652 JUMPI PUSH2 0x5BD PUSH2 0x5B4 DUP3 PUSH2 0x240 MLOAD PUSH2 0x344 JUMP JUMPDEST PUSH1 0xE0 MLOAD DUP9 PUSH2 0x2FA JUMP JUMPDEST CALLDATALOAD SWAP3 PUSH2 0x5DC PUSH2 0x5CF DUP4 PUSH2 0x240 MLOAD PUSH2 0x344 JUMP JUMPDEST PUSH2 0x1E0 MLOAD PUSH2 0x260 MLOAD PUSH2 0x2FA JUMP JUMPDEST CALLDATALOAD SWAP1 PUSH2 0x5F5 PUSH2 0x5EE DUP5 PUSH2 0x240 MLOAD PUSH2 0x344 JUMP JUMPDEST DUP9 DUP12 PUSH2 0x2FA JUMP JUMPDEST CALLDATALOAD SWAP6 PUSH2 0x604 PUSH2 0x574 DUP5 DUP9 PUSH2 0x344 JUMP JUMPDEST SUB PUSH2 0x644 JUMPI DUP2 PUSH2 0x621 PUSH2 0x63F SWAP5 SWAP4 DUP8 PUSH2 0x631 SWAP5 PUSH2 0x340 MLOAD SWAP1 PUSH2 0xC0C JUMP JUMPDEST SWAP7 DUP8 SWAP2 PUSH1 0x0 PUSH2 0x340 MSTORE DUP3 SWAP8 PUSH2 0x1AD8 JUMP JUMPDEST SWAP5 PUSH2 0x446 DUP3 PUSH2 0x2C0 MLOAD PUSH2 0x2E6 JUMP JUMPDEST PUSH2 0x59A JUMP JUMPDEST POP POP POP SWAP5 POP POP POP POP POP PUSH1 0x0 SWAP1 JUMP JUMPDEST POP SWAP4 SWAP5 SWAP3 SWAP1 POP PUSH2 0x667 PUSH1 0x80 MLOAD PUSH2 0x240 MLOAD PUSH2 0x344 JUMP JUMPDEST PUSH2 0x240 MSTORE PUSH2 0x67B PUSH2 0x220 MLOAD PUSH2 0x120 MLOAD PUSH2 0x2E6 JUMP JUMPDEST MLOAD SWAP3 PUSH2 0x695 PUSH2 0x690 PUSH1 0x1 NOT PUSH1 0x80 MLOAD AND DUP7 PUSH2 0x344 JUMP JUMPDEST PUSH2 0x27D JUMP JUMPDEST SWAP6 PUSH1 0x0 PUSH1 0xA0 MSTORE JUMPDEST PUSH1 0xA0 MLOAD DUP6 DUP2 LT ISZERO PUSH2 0x6D5 JUMPI PUSH2 0x6B4 SWAP1 PUSH2 0x100 MLOAD PUSH2 0x2E6 JUMP JUMPDEST MLOAD PUSH2 0x6C1 PUSH1 0xA0 MLOAD DUP10 PUSH2 0x2E6 JUMP JUMPDEST MSTORE PUSH2 0x6CD PUSH1 0xA0 MLOAD PUSH2 0x240 JUMP JUMPDEST PUSH1 0xA0 MSTORE PUSH2 0x69C JUMP JUMPDEST POP SWAP1 SWAP2 SWAP6 SWAP5 SWAP3 SWAP4 SWAP6 PUSH1 0x0 PUSH1 0xC0 MSTORE JUMPDEST PUSH1 0x80 MLOAD PUSH1 0x1 SHR PUSH1 0xC0 MLOAD SWAP1 DUP2 LT ISZERO PUSH2 0x767 JUMPI PUSH2 0x701 SWAP1 PUSH2 0x2C0 MLOAD PUSH2 0x2E6 JUMP JUMPDEST MLOAD PUSH2 0x717 PUSH2 0x711 PUSH1 0xC0 MLOAD DUP11 PUSH2 0x344 JUMP JUMPDEST DUP9 PUSH2 0x2E6 JUMP JUMPDEST MSTORE PUSH2 0x735 PUSH2 0x72C PUSH1 0xC0 MLOAD PUSH1 0x80 MLOAD PUSH1 0x1 SHR PUSH2 0x344 JUMP JUMPDEST PUSH2 0x2C0 MLOAD PUSH2 0x2E6 JUMP JUMPDEST MLOAD PUSH2 0x753 PUSH2 0x711 PUSH1 0xC0 MLOAD PUSH2 0x74E PUSH1 0x80 MLOAD PUSH1 0x1 SHR DUP13 PUSH2 0x344 JUMP JUMPDEST PUSH2 0x344 JUMP JUMPDEST MSTORE PUSH2 0x75F PUSH1 0xC0 MLOAD PUSH2 0x240 JUMP JUMPDEST PUSH1 0xC0 MSTORE PUSH2 0x6E3 JUMP JUMPDEST POP SWAP3 SWAP6 SWAP5 PUSH2 0x77C SWAP2 SWAP6 PUSH1 0x80 MLOAD PUSH1 0x1 SHR SWAP2 PUSH2 0xC74 JUMP JUMPDEST SWAP4 PUSH2 0x78B PUSH1 0x80 MLOAD PUSH1 0x1 SHR PUSH2 0x27D JUMP JUMPDEST PUSH2 0x1C0 MSTORE PUSH2 0x79D PUSH1 0x80 MLOAD PUSH1 0x1 SHR PUSH2 0x27D JUMP JUMPDEST PUSH2 0x2E0 MSTORE PUSH1 0x0 JUMPDEST PUSH1 0x80 MLOAD PUSH1 0x1 SHR DUP2 LT ISZERO PUSH2 0x7F6 JUMPI DUP1 PUSH2 0x7C2 PUSH2 0x7F1 SWAP3 PUSH2 0x2C0 MLOAD PUSH2 0x2E6 JUMP JUMPDEST MLOAD PUSH2 0x7D0 DUP3 PUSH2 0x1C0 MLOAD PUSH2 0x2E6 JUMP JUMPDEST MSTORE PUSH2 0x7E3 PUSH2 0x72C DUP3 PUSH1 0x80 MLOAD PUSH1 0x1 SHR PUSH2 0x344 JUMP JUMPDEST MLOAD PUSH2 0x446 DUP3 PUSH2 0x2E0 MLOAD PUSH2 0x2E6 JUMP JUMPDEST PUSH2 0x7A4 JUMP JUMPDEST POP SWAP4 SWAP5 SWAP2 SWAP3 SWAP1 SWAP5 PUSH2 0x220 MLOAD PUSH1 0x1 DUP2 ADD DUP2 GT PUSH2 0x21D JUMPI PUSH2 0x120 MLOAD PUSH2 0x1A0 MLOAD PUSH2 0x200 MLOAD PUSH2 0x1C0 MLOAD PUSH2 0x827 SWAP5 PUSH1 0x1 ADD PUSH2 0x112E JUMP JUMPDEST SWAP1 PUSH2 0x863 PUSH2 0x574 PUSH1 0x1 PUSH8 0x800000000000011 PUSH1 0xC0 SHL ADD SWAP4 PUSH2 0x85D PUSH2 0x120 MLOAD PUSH2 0x1A0 MLOAD PUSH2 0x200 MLOAD PUSH2 0x2E0 MLOAD PUSH1 0x1 PUSH2 0x220 MLOAD ADD PUSH2 0x112E JUMP JUMPDEST SWAP1 PUSH2 0x344 JUMP JUMPDEST SWAP1 MULMOD SUB PUSH2 0xB09 JUMPI PUSH2 0x87D PUSH1 0x1 PUSH2 0x220 MLOAD ADD PUSH2 0x120 MLOAD PUSH2 0x2E6 JUMP JUMPDEST MLOAD PUSH2 0x160 MSTORE PUSH1 0x0 DUP1 PUSH2 0x2A0 MSTORE JUMPDEST PUSH1 0x80 MLOAD PUSH1 0x1 SHR PUSH2 0x2A0 MLOAD SWAP1 DUP2 LT DUP1 PUSH2 0xB04 JUMPI JUMPDEST ISZERO PUSH2 0x9F6 JUMPI PUSH2 0x8AF SWAP1 PUSH2 0x1C0 MLOAD PUSH2 0x2E6 JUMP JUMPDEST MLOAD PUSH2 0x2A0 MLOAD DUP1 DUP1 PUSH1 0x5 SHL DIV PUSH1 0x20 EQ DUP2 ISZERO OR ISZERO PUSH2 0x21D JUMPI PUSH1 0x1 SWAP1 PUSH1 0x5 SHL PUSH1 0x2 DUP2 JUMPDEST PUSH2 0x9B8 JUMPI POP PUSH2 0x8F6 SWAP4 PUSH2 0x574 SWAP4 SWAP1 SWAP3 PUSH1 0x1 PUSH1 0x11 PUSH1 0xC0 SHL ADD PUSH1 0x1 PUSH1 0xFB SHL ADD SWAP3 POP SWAP1 MULMOD SWAP1 PUSH2 0x344 JUMP JUMPDEST PUSH2 0x906 PUSH2 0x2A0 MLOAD PUSH2 0x2E0 MLOAD PUSH2 0x2E6 JUMP JUMPDEST MLOAD PUSH2 0x140 MSTORE PUSH2 0x91D PUSH2 0x2A0 MLOAD PUSH1 0x80 MLOAD PUSH1 0x1 SHR PUSH2 0x344 JUMP JUMPDEST DUP1 DUP1 PUSH1 0x5 SHL DIV PUSH1 0x20 EQ DUP2 ISZERO OR ISZERO PUSH2 0x21D JUMPI PUSH1 0x1 SWAP1 PUSH1 0x5 SHL PUSH1 0x2 DUP2 JUMPDEST PUSH2 0x97A JUMPI POP POP PUSH2 0x140 MLOAD PUSH2 0x963 SWAP3 PUSH2 0x574 SWAP3 SWAP1 SWAP2 PUSH1 0x1 PUSH1 0x11 PUSH1 0xC0 SHL ADD PUSH1 0x1 PUSH1 0xFB SHL ADD SWAP2 SWAP1 MULMOD SWAP1 PUSH2 0x344 JUMP JUMPDEST SWAP4 PUSH2 0x970 PUSH2 0x2A0 MLOAD PUSH2 0x240 JUMP JUMPDEST PUSH2 0x2A0 MSTORE SWAP4 PUSH2 0x88A JUMP JUMPDEST PUSH1 0x1 DUP3 AND PUSH2 0x99F JUMPI JUMPDEST PUSH1 0x1 PUSH1 0x11 PUSH1 0xC0 SHL ADD PUSH1 0x1 PUSH1 0xFB SHL ADD SWAP1 DUP1 MULMOD SWAP1 PUSH1 0x1 SHR SWAP1 DUP2 PUSH2 0x938 JUMP JUMPDEST SWAP2 PUSH1 0x1 PUSH1 0x11 PUSH1 0xC0 SHL ADD PUSH1 0x1 PUSH1 0xFB SHL ADD SWAP1 DUP4 SWAP1 MULMOD SWAP2 PUSH2 0x983 JUMP JUMPDEST PUSH1 0x1 DUP3 AND PUSH2 0x9DD JUMPI JUMPDEST PUSH1 0x1 PUSH1 0x11 PUSH1 0xC0 SHL ADD PUSH1 0x1 PUSH1 0xFB SHL ADD SWAP1 DUP1 MULMOD SWAP1 PUSH1 0x1 SHR SWAP1 DUP2 PUSH2 0x8CF JUMP JUMPDEST SWAP2 PUSH1 0x1 PUSH1 0x11 PUSH1 0xC0 SHL ADD PUSH1 0x1 PUSH1 0xFB SHL ADD SWAP1 DUP4 SWAP1 MULMOD SWAP2 PUSH2 0x9C1 JUMP JUMPDEST POP SWAP2 SWAP4 SWAP1 SWAP3 SWAP1 SWAP2 PUSH2 0xA20 SWAP1 PUSH2 0x574 SWAP1 PUSH1 0x1 PUSH1 0x11 PUSH1 0xC0 SHL ADD PUSH1 0x1 PUSH1 0xFB SHL ADD SWAP1 PUSH4 0x9E3779B1 SWAP1 MULMOD PUSH2 0x30A JUMP JUMPDEST PUSH1 0x1 PUSH1 0x11 PUSH1 0xC0 SHL ADD PUSH1 0x1 PUSH1 0xFB SHL ADD DUP2 LT PUSH2 0xAFE JUMPI PUSH1 0x1 PUSH1 0x11 PUSH1 0xC0 SHL ADD PUSH1 0x1 PUSH1 0xFB SHL ADD SWAP1 MOD SWAP4 JUMPDEST PUSH2 0xA52 PUSH2 0x160 MLOAD PUSH2 0x27D JUMP JUMPDEST PUSH2 0x100 MSTORE PUSH1 0x0 JUMPDEST PUSH2 0x160 MLOAD DUP2 LT ISZERO PUSH2 0xAC4 JUMPI PUSH2 0xABA SWAP1 PUSH2 0xA88 PUSH2 0x574 DUP3 PUSH1 0x1 PUSH1 0x11 PUSH1 0xC0 SHL ADD PUSH1 0x1 PUSH1 0xFB SHL ADD PUSH3 0xF4240 DUP12 MULMOD PUSH2 0x344 JUMP JUMPDEST PUSH1 0x1 PUSH1 0x11 PUSH1 0xC0 SHL ADD PUSH1 0x1 PUSH1 0xFB SHL ADD DUP2 LT PUSH2 0xABF JUMPI PUSH1 0x1 PUSH1 0x11 PUSH1 0xC0 SHL ADD PUSH1 0x1 PUSH1 0xFB SHL ADD SWAP1 MOD JUMPDEST PUSH2 0x446 DUP3 PUSH2 0x100 MLOAD PUSH2 0x2E6 JUMP JUMPDEST PUSH2 0xA59 JUMP JUMPDEST PUSH2 0xAAD JUMP JUMPDEST POP SWAP2 SWAP4 POP SWAP2 PUSH2 0xAE8 PUSH2 0x120 MLOAD PUSH2 0x1A0 MLOAD PUSH2 0x200 MLOAD PUSH2 0x100 MLOAD PUSH1 0x1 PUSH2 0x220 MLOAD ADD PUSH2 0x112E JUMP JUMPDEST SWAP1 PUSH2 0xAF5 PUSH2 0x220 MLOAD PUSH2 0x240 JUMP JUMPDEST PUSH2 0x220 MSTORE PUSH2 0x4E8 JUMP JUMPDEST SWAP4 PUSH2 0xA46 JUMP JUMPDEST PUSH2 0x89D JUMP JUMPDEST SWAP3 POP POP POP PUSH1 0x0 SWAP1 JUMP JUMPDEST SWAP4 POP POP POP POP PUSH1 0x0 SWAP1 JUMP JUMPDEST POP PUSH1 0xE0 MLOAD DUP4 EQ PUSH2 0x539 JUMP JUMPDEST POP PUSH1 0xE0 MLOAD PUSH2 0x1E0 MLOAD EQ PUSH2 0x533 JUMP JUMPDEST POP SWAP4 POP SWAP2 POP POP PUSH2 0xB4F PUSH2 0x100 MLOAD PUSH2 0x1A0 MLOAD PUSH2 0x200 MLOAD PUSH2 0xF69 JUMP JUMPDEST EQ SWAP1 JUMP JUMPDEST PUSH1 0x40 MLOAD PUSH3 0x461BCD PUSH1 0xE5 SHL DUP2 MSTORE PUSH1 0x20 PUSH1 0x4 DUP3 ADD MSTORE PUSH1 0x1C PUSH1 0x24 DUP3 ADD MSTORE PUSH32 0x46465456657269666965723A20726F756E64436F756E7473206C656E00000000 PUSH1 0x44 DUP3 ADD MSTORE PUSH1 0x64 SWAP1 REVERT JUMPDEST PUSH2 0xBA4 PUSH2 0x280 MLOAD PUSH2 0x240 JUMP JUMPDEST PUSH2 0x280 MSTORE PUSH1 0x1 SHR DUP1 PUSH2 0x3E3 JUMP JUMPDEST PUSH1 0x40 MLOAD PUSH3 0x461BCD PUSH1 0xE5 SHL DUP2 MSTORE PUSH1 0x20 PUSH1 0x4 DUP3 ADD MSTORE PUSH1 0x1D PUSH1 0x24 DUP3 ADD MSTORE PUSH32 0x46465456657269666965723A206E206E6F7420706F776572206F662032000000 PUSH1 0x44 DUP3 ADD MSTORE PUSH1 0x64 SWAP1 REVERT JUMPDEST PUSH1 0x0 NOT DUP2 ADD SWAP2 POP DUP1 DUP3 GT PUSH2 0x21D JUMPI AND ISZERO CODESIZE PUSH2 0x3D1 JUMP JUMPDEST PUSH2 0x574 PUSH3 0xF4240 SWAP5 PUSH2 0x74E PUSH2 0x574 PUSH2 0xC47 SWAP5 PUSH4 0x9E3779B1 SWAP7 PUSH1 0x0 EQ PUSH2 0xC6F JUMPI JUMPDEST PUSH1 0x1 PUSH1 0x11 PUSH1 0xC0 SHL ADD PUSH1 0x1 PUSH1 0xFB SHL ADD SWAP9 DUP10 SWAP9 DUP10 SWAP2 SWAP1 MULMOD SWAP1 PUSH2 0x344 JUMP JUMPDEST MULMOD PUSH4 0x85EBCA6B DUP2 ADD DUP1 SWAP2 GT PUSH2 0x21D JUMPI PUSH2 0xC5F SWAP1 PUSH2 0x1A05 JUMP JUMPDEST DUP2 DUP2 LT PUSH2 0xC6A JUMPI MOD SWAP1 JUMP JUMPDEST SWAP1 POP SWAP1 JUMP JUMPDEST PUSH2 0xC2C JUMP JUMPDEST DUP1 MLOAD SWAP3 SWAP2 SWAP1 PUSH1 0x1 PUSH1 0x1 PUSH1 0xFF SHL SUB DUP4 AND DUP4 SUB PUSH2 0x21D JUMPI PUSH1 0x1 SWAP4 PUSH2 0xC98 DUP5 DUP7 SHL DUP5 PUSH2 0x344 JUMP JUMPDEST GT PUSH2 0xF24 JUMPI DUP4 SWAP2 PUSH1 0x0 JUMPDEST DUP2 DUP2 LT PUSH2 0xE77 JUMPI POP DUP1 DUP5 GT ISZERO PUSH2 0xD98 JUMPI PUSH2 0xCC5 PUSH2 0xCBF DUP3 DUP1 PUSH2 0x344 JUMP JUMPDEST DUP4 PUSH2 0x2E6 JUMP JUMPDEST MLOAD PUSH1 0x1 PUSH1 0x11 PUSH1 0xC0 SHL ADD PUSH1 0x1 PUSH1 0xFB SHL ADD SWAP6 SWAP1 DUP7 SUB DUP7 DUP2 GT PUSH2 0x21D JUMPI DUP2 DUP2 ADD DUP1 SWAP2 GT PUSH2 0x21D JUMPI DUP7 SWAP1 DUP2 PUSH2 0xD03 PUSH2 0xCFD DUP7 PUSH2 0x74E DUP12 DUP3 PUSH2 0x344 JUMP JUMPDEST DUP8 PUSH2 0x2E6 JUMP JUMPDEST MLOAD SWAP2 MOD MULMOD SWAP5 DUP2 DUP4 ADD DUP1 DUP5 GT PUSH2 0x21D JUMPI SWAP4 SWAP3 SWAP2 SWAP1 JUMPDEST DUP1 DUP6 LT PUSH2 0xD27 JUMPI POP POP POP POP POP MULMOD SWAP1 JUMP JUMPDEST SWAP1 SWAP2 SWAP3 SWAP4 SWAP6 PUSH2 0xD3F PUSH2 0xD39 DUP9 DUP7 PUSH2 0x344 JUMP JUMPDEST DUP7 PUSH2 0x2E6 JUMP JUMPDEST MLOAD DUP9 SUB SWAP1 DUP9 DUP3 GT PUSH2 0x21D JUMPI DUP4 DUP3 ADD DUP1 SWAP3 GT PUSH2 0x21D JUMPI PUSH2 0xD65 PUSH2 0xCFD DUP10 PUSH2 0x74E DUP7 DUP10 PUSH2 0x344 JUMP JUMPDEST MLOAD DUP10 SUB SWAP2 DUP10 DUP4 GT PUSH2 0x21D JUMPI DUP5 DUP4 ADD DUP1 SWAP4 GT PUSH2 0x21D JUMPI DUP10 DUP1 SWAP3 DUP2 DUP1 PUSH2 0xD8F SWAP7 MOD SWAP4 MOD SWAP1 MULMOD MULMOD SWAP7 PUSH2 0x240 JUMP JUMPDEST SWAP4 SWAP3 SWAP2 SWAP1 PUSH2 0xD17 JUMP JUMPDEST SWAP1 SWAP2 SWAP3 DUP2 ISZERO ISZERO SWAP5 DUP6 DUP1 SWAP7 PUSH2 0xE58 JUMPI JUMPDEST PUSH2 0xE4D JUMPI DUP6 ISZERO PUSH2 0xE47 JUMPI PUSH2 0xDBB DUP4 DUP1 PUSH2 0x344 JUMP JUMPDEST PUSH1 0x0 NOT DUP2 ADD SWAP1 DUP2 GT PUSH2 0x21D JUMPI PUSH2 0xDD1 SWAP1 DUP6 PUSH2 0x2E6 JUMP JUMPDEST MLOAD PUSH1 0x1 PUSH1 0x11 PUSH1 0xC0 SHL ADD PUSH1 0x1 PUSH1 0xFB SHL ADD SWAP2 SWAP1 DUP3 SUB SWAP1 DUP3 DUP3 GT PUSH2 0x21D JUMPI DUP2 ADD DUP1 SWAP2 GT PUSH2 0x21D JUMPI MOD SWAP5 JUMPDEST PUSH1 0x0 SWAP1 ISZERO PUSH2 0xE3D JUMPI POP SWAP1 PUSH2 0x74E PUSH2 0xE0F SWAP3 DUP3 PUSH2 0x344 JUMP JUMPDEST PUSH1 0x0 NOT DUP2 ADD SWAP1 DUP2 GT PUSH2 0x21D JUMPI PUSH2 0xE24 SWAP2 PUSH2 0x2E6 JUMP JUMPDEST MLOAD SWAP1 JUMPDEST PUSH1 0x1 PUSH1 0x11 PUSH1 0xC0 SHL ADD PUSH1 0x1 PUSH1 0xFB SHL ADD SWAP3 DUP4 SWAP2 MULMOD MULMOD SWAP1 JUMP JUMPDEST SWAP3 POP POP POP SWAP1 PUSH2 0xE27 JUMP JUMPDEST SWAP5 PUSH2 0xDF8 JUMP JUMPDEST POP POP POP POP POP POP PUSH1 0x0 SWAP1 JUMP JUMPDEST POP PUSH1 0x0 NOT DUP4 ADD DUP4 DUP2 GT PUSH2 0x21D JUMPI PUSH2 0xE6F SWAP1 DUP6 PUSH2 0x2E6 JUMP JUMPDEST MLOAD ISZERO ISZERO PUSH2 0xDA7 JUMP JUMPDEST SWAP3 PUSH2 0xE82 DUP5 DUP5 PUSH2 0x2E6 JUMP JUMPDEST MLOAD SWAP1 PUSH2 0xE97 PUSH2 0xE91 DUP7 DUP6 PUSH2 0x344 JUMP JUMPDEST DUP6 PUSH2 0x2E6 JUMP JUMPDEST MLOAD SWAP1 PUSH2 0xEAA PUSH2 0xD39 DUP8 PUSH2 0x74E DUP11 DUP9 PUSH2 0x344 JUMP JUMPDEST MLOAD PUSH1 0x1 PUSH1 0x11 PUSH1 0xC0 SHL ADD PUSH1 0x1 PUSH1 0xFB SHL ADD DUP5 DUP2 SUB SWAP5 SWAP1 SWAP4 SWAP2 SWAP1 DUP5 DUP7 GT PUSH2 0x21D JUMPI DUP11 DUP7 ADD DUP1 SWAP7 GT PUSH2 0x21D JUMPI DUP3 DUP6 SUB SWAP2 DUP6 DUP4 GT PUSH2 0x21D JUMPI DUP12 DUP4 ADD DUP1 SWAP4 GT PUSH2 0x21D JUMPI DUP1 DUP7 SUB SWAP1 DUP7 DUP3 GT PUSH2 0x21D JUMPI DUP13 DUP3 ADD DUP1 SWAP3 GT PUSH2 0x21D JUMPI DUP7 PUSH2 0xF17 SWAP6 DUP2 DUP1 SWAP5 DUP2 PUSH2 0x574 SWAP9 PUSH2 0xF1F SWAP14 MULMOD MULMOD SWAP5 MULMOD MULMOD PUSH2 0x344 JUMP JUMPDEST SWAP1 MULMOD SWAP4 PUSH2 0x240 JUMP JUMPDEST PUSH2 0xCA2 JUMP JUMPDEST PUSH1 0x40 MLOAD PUSH3 0x461BCD PUSH1 0xE5 SHL DUP2 MSTORE PUSH1 0x20 PUSH1 0x4 DUP3 ADD MSTORE PUSH1 0x1C PUSH1 0x24 DUP3 ADD MSTORE PUSH32 0x46465456657269666965723A20706F696E7420746F6F2073686F727400000000 PUSH1 0x44 DUP3 ADD MSTORE PUSH1 0x64 SWAP1 REVERT JUMPDEST DUP3 MLOAD SWAP3 PUSH1 0x1 SWAP3 DUP4 DUP6 SHL SWAP2 DUP3 DUP3 SUB PUSH2 0x10A4 JUMPI PUSH1 0x0 SWAP6 DUP7 SWAP6 SWAP4 SWAP5 SWAP4 PUSH1 0x0 NOT DUP3 ADD DUP3 DUP2 GT SWAP5 SWAP4 SWAP3 SWAP2 SWAP1 JUMPDEST DUP8 DUP10 LT PUSH2 0xFA3 JUMPI POP POP POP POP POP POP POP POP POP SWAP1 JUMP JUMPDEST SWAP1 SWAP2 SWAP3 SWAP4 SWAP5 SWAP6 SWAP7 SWAP8 SWAP9 DUP8 DUP4 DUP12 PUSH1 0x0 JUMPDEST DUP11 DUP9 DUP3 LT PUSH2 0x1005 JUMPI POP POP SWAP3 PUSH2 0xFF2 SWAP3 PUSH2 0x574 SWAP3 PUSH2 0xFEB PUSH2 0xFE5 PUSH2 0xFF8 SWAP8 DUP14 PUSH1 0x1 PUSH8 0x800000000000011 PUSH1 0xC0 SHL ADD SWAP6 PUSH2 0x2FA JUMP JUMPDEST CALLDATALOAD PUSH2 0x1A05 JUMP JUMPDEST MULMOD SWAP1 PUSH2 0x344 JUMP JUMPDEST SWAP10 PUSH2 0x240 JUMP JUMPDEST SWAP8 SWAP7 SWAP6 SWAP5 SWAP4 SWAP3 SWAP2 SWAP1 PUSH2 0xF90 JUMP JUMPDEST SWAP2 POP SWAP3 POP PUSH2 0x21D JUMPI DUP5 DUP1 DUP14 PUSH2 0x101A DUP6 DUP9 PUSH2 0x233 JUMP JUMPDEST SHR AND EQ PUSH1 0x0 SWAP1 PUSH1 0x0 EQ PUSH2 0x1057 JUMPI POP PUSH2 0x104E SWAP1 PUSH2 0x1036 DUP4 DUP10 PUSH2 0x2E6 JUMP JUMPDEST MLOAD JUMPDEST PUSH1 0x1 PUSH1 0x11 PUSH1 0xC0 SHL ADD PUSH1 0x1 PUSH1 0xFB SHL ADD SWAP2 MULMOD SWAP2 PUSH2 0x240 JUMP JUMPDEST SWAP1 DUP12 DUP11 SWAP3 PUSH2 0xFB2 JUMP JUMPDEST PUSH2 0x1061 DUP4 DUP10 PUSH2 0x2E6 JUMP JUMPDEST MLOAD PUSH1 0x1 PUSH1 0x11 PUSH1 0xC0 SHL ADD PUSH1 0x1 PUSH1 0xFB SHL ADD SWAP1 DUP2 SUB SWAP2 SWAP1 DUP3 GT PUSH2 0x1090 JUMPI DUP7 DUP3 ADD DUP1 SWAP3 GT PUSH2 0x1090 JUMPI POP SWAP1 PUSH2 0x104E SWAP2 PUSH2 0x1038 JUMP JUMPDEST PUSH4 0x4E487B71 PUSH1 0xE0 SHL DUP2 MSTORE PUSH1 0x11 PUSH1 0x4 MSTORE PUSH1 0x24 SWAP1 REVERT JUMPDEST PUSH1 0x40 MLOAD PUSH3 0x461BCD PUSH1 0xE5 SHL DUP2 MSTORE PUSH1 0x20 PUSH1 0x4 DUP3 ADD MSTORE PUSH1 0x19 PUSH1 0x24 DUP3 ADD MSTORE PUSH32 0x46465456657269666965723A20696E707574206C656E67746800000000000000 PUSH1 0x44 DUP3 ADD MSTORE PUSH1 0x64 SWAP1 REVERT JUMPDEST ISZERO PUSH2 0x10F0 JUMPI JUMP JUMPDEST PUSH1 0x40 MLOAD PUSH3 0x461BCD PUSH1 0xE5 SHL DUP2 MSTORE PUSH1 0x20 PUSH1 0x4 DUP3 ADD MSTORE PUSH1 0x16 PUSH1 0x24 DUP3 ADD MSTORE PUSH22 0x23232A2B32B934B334B2B91D103837B4B73A103632B7 PUSH1 0x51 SHL PUSH1 0x44 DUP3 ADD MSTORE PUSH1 0x64 SWAP1 REVERT JUMPDEST SWAP4 SWAP2 SWAP3 SWAP1 SWAP3 PUSH2 0x113D DUP6 DUP5 PUSH2 0x2E6 JUMP JUMPDEST MLOAD SWAP4 PUSH2 0x114B DUP6 DUP3 MLOAD EQ PUSH2 0x10E9 JUMP JUMPDEST PUSH2 0x1155 DUP5 MLOAD PUSH2 0x20E JUMP JUMPDEST DUP7 EQ PUSH2 0x1291 JUMPI DUP4 DUP4 DUP4 PUSH2 0x1170 PUSH2 0x116A DUP11 PUSH2 0x31B JUMP JUMPDEST DUP5 PUSH2 0x2E6 JUMP JUMPDEST MLOAD SWAP8 PUSH2 0x117B DUP2 PUSH2 0x31B JUMP JUMPDEST SWAP1 PUSH2 0x1185 DUP11 PUSH2 0x27D JUMP JUMPDEST SWAP6 PUSH2 0x118F DUP12 PUSH2 0x27D JUMP JUMPDEST SWAP11 DUP1 DUP5 LT ISZERO SWAP4 PUSH1 0x0 JUMPDEST DUP3 DUP2 LT PUSH2 0x11D1 JUMPI POP POP POP POP POP POP PUSH2 0x11B7 SWAP4 PUSH2 0x11B2 DUP11 PUSH2 0x31B JUMP JUMPDEST PUSH2 0x112E JUMP JUMPDEST SWAP4 PUSH2 0x11B2 PUSH2 0x11C5 SWAP6 SWAP7 PUSH2 0x31B JUMP JUMPDEST PUSH2 0x11CE SWAP2 PUSH2 0x19F8 JUMP JUMPDEST SWAP1 JUMP JUMPDEST SWAP2 SWAP5 SWAP8 POP SWAP3 SWAP6 POP PUSH2 0x122C SWAP2 SWAP5 POP DUP7 PUSH1 0x0 EQ PUSH2 0x1251 JUMPI DUP12 PUSH2 0x11F5 DUP3 PUSH2 0x74E DUP8 DUP8 PUSH2 0x233 JUMP JUMPDEST DUP3 DUP9 DUP3 LT DUP12 PUSH1 0x0 DUP4 DUP4 ISZERO PUSH2 0x1247 JUMPI PUSH2 0x1219 SWAP2 POP PUSH2 0x1212 DUP7 DUP14 PUSH2 0x2E6 JUMP JUMPDEST MLOAD SWAP3 PUSH2 0x2E6 JUMP JUMPDEST MSTORE ISZERO PUSH2 0x123A JUMPI PUSH2 0x1212 PUSH2 0x446 SWAP3 DUP10 PUSH2 0x2E6 JUMP JUMPDEST SWAP3 DUP10 SWAP6 SWAP3 DUP10 SWAP6 SWAP3 DUP10 SWAP6 PUSH2 0x1198 JUMP JUMPDEST PUSH2 0x446 SWAP2 POP PUSH1 0x1 SWAP3 PUSH2 0x2E6 JUMP JUMPDEST PUSH2 0x1219 SWAP2 SWAP3 PUSH2 0x2E6 JUMP JUMPDEST DUP12 DUP9 DUP3 PUSH2 0x125E DUP7 DUP9 PUSH2 0x233 JUMP JUMPDEST DUP2 LT ISZERO PUSH2 0x127C JUMPI PUSH1 0x0 SWAP3 DUP4 PUSH2 0x1276 DUP4 PUSH2 0x446 SWAP6 PUSH2 0x2E6 JUMP JUMPDEST MSTORE PUSH2 0x2E6 JUMP JUMPDEST POP POP PUSH2 0x11F5 PUSH2 0x128B DUP6 DUP8 PUSH2 0x233 JUMP JUMPDEST DUP4 PUSH2 0x233 JUMP JUMPDEST SWAP4 POP SWAP1 SWAP2 POP PUSH2 0x11CE SWAP4 POP PUSH2 0xF69 JUMP JUMPDEST SWAP12 SWAP6 SWAP2 SWAP13 SWAP11 SWAP5 SWAP9 SWAP4 SWAP10 SWAP7 SWAP3 SWAP1 SWAP13 PUSH2 0x320 MSTORE PUSH2 0x2E0 MSTORE PUSH2 0x2A0 MSTORE PUSH2 0x100 MSTORE DUP5 PUSH2 0x1E0 MSTORE PUSH2 0x180 MSTORE DUP3 PUSH2 0x120 MSTORE PUSH2 0x300 MSTORE PUSH2 0x260 MSTORE PUSH1 0x1 DUP3 ADD DUP3 GT PUSH2 0x21D JUMPI PUSH1 0x1 PUSH1 0x1 PUSH1 0xFF SHL SUB DUP3 AND DUP3 SUB PUSH2 0x21D JUMPI DUP2 PUSH1 0x1 SHL GT PUSH2 0x19BB JUMPI PUSH2 0x1E0 MLOAD PUSH2 0x260 MLOAD LT PUSH2 0x1976 JUMPI PUSH2 0x130F PUSH1 0x1 DUP3 ADD PUSH2 0x27D JUMP JUMPDEST PUSH2 0x340 MSTORE PUSH1 0x0 JUMPDEST PUSH1 0x1 DUP3 ADD DUP2 LT PUSH2 0x1902 JUMPI POP POP PUSH1 0x0 SWAP4 SWAP2 PUSH2 0x1335 PUSH2 0x4A5 PUSH2 0x340 MLOAD PUSH2 0x2C3 JUMP JUMPDEST PUSH2 0x280 MSTORE DUP5 PUSH2 0x1A0 MSTORE JUMPDEST PUSH2 0x280 MLOAD DUP1 MLOAD SWAP1 PUSH2 0x1A0 MLOAD SWAP2 DUP3 LT ISZERO PUSH2 0x1373 JUMPI DUP7 SWAP2 PUSH2 0x135D SWAP2 PUSH2 0x2E6 JUMP JUMPDEST MSTORE PUSH2 0x136A PUSH2 0x1A0 MLOAD PUSH2 0x240 JUMP JUMPDEST PUSH2 0x1A0 MSTORE PUSH2 0x133F JUMP JUMPDEST POP POP SWAP2 SWAP5 SWAP1 SWAP4 SWAP3 SWAP4 DUP4 SWAP5 DUP5 PUSH2 0x220 MSTORE JUMPDEST PUSH2 0x1E0 MLOAD PUSH2 0x220 MLOAD SWAP1 DUP1 DUP3 LT ISZERO PUSH2 0x18F4 JUMPI PUSH2 0x13C0 SWAP2 PUSH2 0x13A5 SWAP2 PUSH2 0x100 MLOAD PUSH2 0x2FA JUMP JUMPDEST CALLDATALOAD DUP1 PUSH2 0x160 MSTORE PUSH2 0x13B9 PUSH2 0x320 MLOAD SWAP2 DUP9 PUSH2 0x344 JUMP JUMPDEST GT ISZERO PUSH2 0x351 JUMP JUMPDEST PUSH2 0x13E3 PUSH2 0x574 PUSH2 0x13D4 DUP8 PUSH2 0x320 MLOAD DUP8 PUSH2 0x2FA JUMP JUMPDEST CALLDATALOAD PUSH2 0x56D DUP9 DUP9 PUSH2 0x2E0 MLOAD PUSH2 0x2FA JUMP JUMPDEST SWAP7 DUP8 SUB PUSH2 0x18E8 JUMPI PUSH1 0x1 SWAP2 DUP8 SWAP4 PUSH2 0x13FB PUSH2 0x160 MLOAD PUSH2 0x27D JUMP JUMPDEST SWAP9 PUSH1 0x0 SWAP1 JUMPDEST PUSH2 0x160 MLOAD DUP3 LT ISZERO PUSH2 0x14B5 JUMPI PUSH2 0x1422 PUSH2 0x1418 DUP4 DUP12 PUSH2 0x344 JUMP JUMPDEST PUSH2 0x320 MLOAD DUP6 PUSH2 0x2FA JUMP JUMPDEST CALLDATALOAD SWAP6 PUSH2 0x143B PUSH2 0x1431 DUP5 DUP13 PUSH2 0x344 JUMP JUMPDEST DUP11 PUSH2 0x2E0 MLOAD PUSH2 0x2FA JUMP JUMPDEST CALLDATALOAD SWAP8 PUSH2 0x1454 PUSH2 0x144A DUP6 DUP14 PUSH2 0x344 JUMP JUMPDEST PUSH2 0x2A0 MLOAD DUP9 PUSH2 0x2FA JUMP JUMPDEST CALLDATALOAD SWAP3 PUSH2 0x1463 PUSH2 0x574 DUP12 DUP12 PUSH2 0x344 JUMP JUMPDEST SUB PUSH2 0x14A3 JUMPI SWAP2 PUSH2 0x446 DUP5 PUSH2 0x1493 DUP16 SWAP12 SWAP11 SWAP10 SWAP9 SWAP8 SWAP7 SWAP5 DUP12 DUP12 PUSH2 0x1487 SWAP3 PUSH2 0x1499 SWAP10 PUSH2 0xC0C JUMP JUMPDEST DUP1 SWAP5 PUSH1 0x0 SWAP13 DUP3 SWAP13 PUSH2 0x1AD8 JUMP JUMPDEST SWAP11 PUSH2 0x2E6 JUMP JUMPDEST SWAP1 SWAP2 SWAP3 SWAP4 SWAP6 PUSH2 0x1400 JUMP JUMPDEST POP POP POP POP POP POP SWAP6 POP POP POP POP POP POP PUSH1 0x0 SWAP1 JUMP JUMPDEST SWAP5 POP POP SWAP2 SWAP4 POP SWAP5 PUSH2 0x14CA SWAP1 PUSH2 0x160 MLOAD SWAP1 PUSH2 0x344 JUMP JUMPDEST PUSH2 0x14DA PUSH2 0x220 MLOAD PUSH2 0x340 MLOAD PUSH2 0x2E6 JUMP JUMPDEST MLOAD SWAP6 PUSH2 0x14F0 PUSH2 0x690 PUSH1 0x1 NOT PUSH2 0x160 MLOAD AND DUP10 PUSH2 0x344 JUMP JUMPDEST SWAP6 PUSH1 0x0 JUMPDEST DUP9 DUP2 LT PUSH2 0x18C7 JUMPI POP PUSH1 0x0 JUMPDEST DUP11 PUSH2 0x160 MLOAD PUSH1 0x1 SHR DUP3 LT ISZERO PUSH2 0x156C JUMPI SWAP1 DUP10 PUSH2 0x446 PUSH2 0x1561 DUP4 PUSH2 0x74E PUSH2 0x1552 DUP8 DUP16 PUSH2 0x1541 PUSH2 0x152F DUP7 PUSH2 0x1567 SWAP13 PUSH2 0x2E6 JUMP JUMPDEST MLOAD SWAP2 PUSH2 0x153B DUP8 DUP12 PUSH2 0x344 JUMP JUMPDEST SWAP1 PUSH2 0x2E6 JUMP JUMPDEST MSTORE PUSH2 0x153B DUP5 PUSH2 0x160 MLOAD PUSH1 0x1 SHR PUSH2 0x344 JUMP JUMPDEST MLOAD SWAP5 PUSH2 0x160 MLOAD PUSH1 0x1 SHR SWAP1 PUSH2 0x344 JUMP JUMPDEST DUP12 PUSH2 0x2E6 JUMP JUMPDEST PUSH2 0x14FF JUMP JUMPDEST POP POP SWAP6 PUSH2 0x1586 SWAP2 SWAP8 SWAP9 SWAP4 SWAP5 SWAP3 SWAP9 PUSH2 0x160 MLOAD PUSH1 0x1 SHR SWAP2 PUSH2 0xC74 JUMP JUMPDEST PUSH2 0x1597 DUP4 PUSH2 0x120 MLOAD PUSH2 0x180 MLOAD PUSH2 0x2FA JUMP JUMPDEST CALLDATALOAD SWAP1 PUSH1 0x1 DUP5 ADD DUP1 DUP6 GT PUSH2 0x21D JUMPI PUSH2 0x15B5 SWAP1 PUSH2 0x120 MLOAD PUSH2 0x180 MLOAD PUSH2 0x2FA JUMP JUMPDEST CALLDATALOAD SWAP4 PUSH1 0x2 DUP2 ADD DUP1 SWAP2 GT PUSH2 0x21D JUMPI SWAP4 PUSH1 0x1 PUSH1 0x11 PUSH1 0xC0 SHL ADD PUSH1 0x1 PUSH1 0xFB SHL ADD SWAP3 PUSH2 0x15DF SWAP2 PUSH2 0x574 SWAP2 PUSH2 0x344 JUMP JUMPDEST SWAP1 MULMOD SUB PUSH2 0x18BB JUMPI PUSH2 0x15F5 PUSH2 0x160 MLOAD PUSH1 0x1 SHR PUSH2 0x27D JUMP JUMPDEST PUSH2 0x240 MSTORE PUSH2 0x1608 PUSH2 0x160 MLOAD PUSH1 0x1 SHR PUSH2 0x27D JUMP JUMPDEST PUSH2 0x140 MSTORE PUSH1 0x0 JUMPDEST PUSH2 0x160 MLOAD PUSH1 0x1 SHR DUP2 LT ISZERO PUSH2 0x1666 JUMPI DUP1 PUSH2 0x162B PUSH2 0x1661 SWAP3 DUP11 PUSH2 0x2E6 JUMP JUMPDEST MLOAD PUSH2 0x1639 DUP3 PUSH2 0x240 MLOAD PUSH2 0x2E6 JUMP JUMPDEST MSTORE PUSH2 0x1653 PUSH2 0x164D DUP3 PUSH2 0x160 MLOAD PUSH1 0x1 SHR PUSH2 0x344 JUMP JUMPDEST DUP11 PUSH2 0x2E6 JUMP JUMPDEST MLOAD PUSH2 0x446 DUP3 PUSH2 0x140 MLOAD PUSH2 0x2E6 JUMP JUMPDEST PUSH2 0x160F JUMP JUMPDEST POP SWAP2 SWAP4 SWAP6 POP SWAP2 SWAP4 PUSH2 0x220 MLOAD PUSH1 0x1 DUP2 ADD DUP1 SWAP2 GT PUSH2 0x21D JUMPI PUSH2 0x1689 SWAP1 PUSH2 0x340 MLOAD PUSH2 0x2E6 JUMP JUMPDEST MLOAD PUSH2 0x1C0 MSTORE PUSH1 0x0 PUSH2 0x200 MSTORE PUSH1 0x0 PUSH2 0x2C0 MSTORE JUMPDEST PUSH2 0x160 MLOAD PUSH1 0x1 SHR PUSH2 0x2C0 MLOAD SWAP1 DUP2 LT DUP1 PUSH2 0x18B6 JUMPI JUMPDEST ISZERO PUSH2 0x177F JUMPI PUSH2 0x16C1 SWAP1 PUSH2 0x240 MLOAD PUSH2 0x2E6 JUMP JUMPDEST MLOAD PUSH2 0x2C0 MLOAD SWAP1 PUSH1 0x5 SWAP1 DUP3 DUP3 SHL SWAP1 PUSH1 0x20 SWAP4 DUP1 DUP4 DIV DUP6 EQ SWAP1 ISZERO OR ISZERO PUSH2 0x21D JUMPI PUSH2 0x1709 SWAP2 PUSH2 0x574 SWAP2 PUSH1 0x1 PUSH1 0x11 PUSH1 0xC0 SHL ADD PUSH1 0x1 PUSH1 0xFB SHL ADD SWAP2 PUSH2 0x16FE SWAP1 PUSH2 0x1A24 JUMP JUMPDEST SWAP1 MULMOD PUSH2 0x200 MLOAD PUSH2 0x344 JUMP JUMPDEST PUSH2 0x1719 PUSH2 0x2C0 MLOAD PUSH2 0x140 MLOAD PUSH2 0x2E6 JUMP JUMPDEST MLOAD SWAP2 PUSH2 0x172E PUSH2 0x2C0 MLOAD PUSH2 0x160 MLOAD PUSH1 0x1 SHR PUSH2 0x344 JUMP JUMPDEST DUP1 SWAP2 SHL SWAP4 DUP2 DUP6 DIV EQ SWAP1 ISZERO OR ISZERO PUSH2 0x21D JUMPI PUSH2 0x1766 SWAP3 PUSH2 0x574 SWAP3 PUSH1 0x1 PUSH1 0x11 PUSH1 0xC0 SHL ADD PUSH1 0x1 PUSH1 0xFB SHL ADD SWAP2 PUSH2 0x175E SWAP1 PUSH2 0x1A24 JUMP JUMPDEST SWAP1 MULMOD SWAP1 PUSH2 0x344 JUMP JUMPDEST PUSH2 0x200 MSTORE PUSH2 0x1776 PUSH2 0x2C0 MLOAD PUSH2 0x240 JUMP JUMPDEST PUSH2 0x2C0 MSTORE PUSH2 0x169B JUMP JUMPDEST POP SWAP1 SWAP2 SWAP3 SWAP4 PUSH2 0x17A8 PUSH2 0x574 PUSH1 0x1 PUSH8 0x800000000000011 PUSH1 0xC0 SHL ADD PUSH4 0x9E3779B1 PUSH2 0x200 MLOAD MULMOD PUSH2 0x30A JUMP JUMPDEST PUSH1 0x1 PUSH1 0x11 PUSH1 0xC0 SHL ADD PUSH1 0x1 PUSH1 0xFB SHL ADD DUP2 LT PUSH2 0x18B0 JUMPI PUSH1 0x1 PUSH1 0x11 PUSH1 0xC0 SHL ADD PUSH1 0x1 PUSH1 0xFB SHL ADD SWAP1 MOD SWAP6 JUMPDEST PUSH2 0x17DA PUSH2 0x1C0 MLOAD PUSH2 0x27D JUMP JUMPDEST PUSH2 0x280 MSTORE PUSH1 0x0 JUMPDEST PUSH2 0x1C0 MLOAD DUP2 LT ISZERO PUSH2 0x187A JUMPI PUSH2 0x1848 SWAP1 PUSH2 0x1810 PUSH2 0x574 DUP3 PUSH1 0x1 PUSH1 0x11 PUSH1 0xC0 SHL ADD PUSH1 0x1 PUSH1 0xFB SHL ADD PUSH3 0xF4240 DUP14 MULMOD PUSH2 0x344 JUMP JUMPDEST PUSH2 0x181D DUP3 PUSH2 0x280 MLOAD PUSH2 0x2E6 JUMP JUMPDEST MSTORE PUSH2 0x280 MLOAD PUSH1 0x1 PUSH1 0x11 PUSH1 0xC0 SHL ADD PUSH1 0x1 PUSH1 0xFB SHL ADD SWAP1 PUSH2 0x183C SWAP1 DUP4 SWAP1 PUSH2 0x2E6 JUMP JUMPDEST MLOAD LT ISZERO PUSH2 0x184D JUMPI PUSH2 0x240 JUMP JUMPDEST PUSH2 0x17E1 JUMP JUMPDEST PUSH2 0x280 MLOAD PUSH1 0x1 PUSH1 0x11 PUSH1 0xC0 SHL ADD PUSH1 0x1 PUSH1 0xFB SHL ADD SWAP1 PUSH2 0x186B SWAP1 DUP4 SWAP1 PUSH2 0x2E6 JUMP JUMPDEST MLOAD MOD PUSH2 0x446 DUP3 PUSH2 0x280 MLOAD PUSH2 0x2E6 JUMP JUMPDEST POP SWAP2 SWAP4 SWAP6 POP SWAP2 SWAP4 PUSH2 0x1895 PUSH2 0x220 MLOAD PUSH2 0x260 MLOAD PUSH2 0x300 MLOAD PUSH2 0x2FA JUMP JUMPDEST CALLDATALOAD SWAP2 PUSH2 0x18A3 PUSH2 0x220 MLOAD PUSH2 0x240 JUMP JUMPDEST PUSH2 0x220 MSTORE SWAP1 SWAP6 SWAP2 SWAP6 PUSH2 0x1383 JUMP JUMPDEST SWAP6 PUSH2 0x17CE JUMP JUMPDEST PUSH2 0x16AF JUMP JUMPDEST POP POP SWAP4 POP POP POP POP PUSH1 0x0 SWAP1 JUMP JUMPDEST DUP1 PUSH2 0x18D8 PUSH2 0x18E3 SWAP3 PUSH2 0x280 MLOAD PUSH2 0x2E6 JUMP JUMPDEST MLOAD PUSH2 0x446 DUP3 DUP12 PUSH2 0x2E6 JUMP JUMPDEST PUSH2 0x14F4 JUMP JUMPDEST SWAP6 POP POP POP POP POP POP PUSH1 0x0 SWAP1 JUMP JUMPDEST POP POP SWAP6 POP POP POP POP POP POP PUSH1 0x1 SWAP1 JUMP JUMPDEST PUSH1 0x0 PUSH1 0x1 DUP1 DUP4 SHL SWAP1 DUP2 GT PUSH2 0x192E JUMPI POP POP PUSH2 0x1927 PUSH1 0x1 SWAP2 DUP3 JUMPDEST PUSH2 0x446 DUP3 PUSH2 0x340 MLOAD PUSH2 0x2E6 JUMP JUMPDEST SWAP1 POP PUSH2 0x1316 JUMP JUMPDEST PUSH1 0x0 NOT DUP2 ADD SWAP1 DUP2 GT PUSH2 0x1962 JUMPI DUP1 JUMPDEST PUSH2 0x194D JUMPI POP PUSH1 0x1 SWAP2 PUSH2 0x1927 SWAP2 PUSH2 0x191A JUMP JUMPDEST PUSH1 0x1 SHR SWAP1 DUP2 SWAP1 PUSH2 0x195C SWAP1 PUSH2 0x240 JUMP JUMPDEST SWAP2 PUSH2 0x193C JUMP JUMPDEST PUSH4 0x4E487B71 PUSH1 0xE0 SHL DUP3 MSTORE PUSH1 0x11 PUSH1 0x4 MSTORE PUSH1 0x24 DUP3 REVERT JUMPDEST PUSH1 0x40 MLOAD PUSH3 0x461BCD PUSH1 0xE5 SHL DUP2 MSTORE PUSH1 0x20 PUSH1 0x4 DUP3 ADD MSTORE PUSH1 0x1C PUSH1 0x24 DUP3 ADD MSTORE PUSH32 0x46465456657269666965723A206E657874436C61696D6564206C656E00000000 PUSH1 0x44 DUP3 ADD MSTORE PUSH1 0x64 SWAP1 REVERT JUMPDEST PUSH1 0x40 MLOAD PUSH3 0x461BCD PUSH1 0xE5 SHL DUP2 MSTORE PUSH1 0x20 PUSH1 0x4 DUP3 ADD MSTORE PUSH1 0x15 PUSH1 0x24 DUP3 ADD MSTORE PUSH21 0x23232A2B32B934B334B2B91D103B30AB31103632B7 PUSH1 0x59 SHL PUSH1 0x44 DUP3 ADD MSTORE PUSH1 0x64 SWAP1 REVERT JUMPDEST PUSH2 0x11CE SWAP2 PUSH2 0x574 SWAP2 PUSH2 0x344 JUMP JUMPDEST PUSH1 0x1 PUSH1 0x11 PUSH1 0xC0 SHL ADD PUSH1 0x1 PUSH1 0xFB SHL ADD DUP1 DUP3 LT ISZERO PUSH2 0x1A1F JUMPI POP SWAP1 JUMP JUMPDEST SWAP1 MOD SWAP1 JUMP JUMPDEST PUSH1 0x1 SWAP1 DUP2 PUSH1 0x2 DUP3 JUMPDEST PUSH2 0x1A36 JUMPI POP POP POP SWAP1 JUMP JUMPDEST DUP2 DUP4 AND PUSH2 0x1A59 JUMPI JUMPDEST PUSH1 0x1 PUSH1 0x11 PUSH1 0xC0 SHL ADD PUSH1 0x1 PUSH1 0xFB SHL ADD SWAP1 DUP1 MULMOD SWAP2 DUP2 SHR SWAP2 DUP3 PUSH2 0x1A2C JUMP JUMPDEST SWAP3 PUSH1 0x1 PUSH1 0x11 PUSH1 0xC0 SHL ADD PUSH1 0x1 PUSH1 0xFB SHL ADD SWAP1 DUP5 SWAP1 MULMOD SWAP3 PUSH2 0x1A3E JUMP JUMPDEST PUSH1 0x1 PUSH1 0x1 PUSH8 0x800000000000011 PUSH1 0xC0 SHL SUB DUP2 PUSH8 0x800000000000011 PUSH1 0xC0 SHL DUP3 JUMPDEST PUSH2 0x1A9C JUMPI POP POP POP SWAP1 JUMP JUMPDEST DUP2 DUP4 AND PUSH2 0x1ABF JUMPI JUMPDEST PUSH1 0x1 PUSH1 0x11 PUSH1 0xC0 SHL ADD PUSH1 0x1 PUSH1 0xFB SHL ADD SWAP1 DUP1 MULMOD SWAP2 DUP2 SHR SWAP2 DUP3 PUSH2 0x1A92 JUMP JUMPDEST SWAP3 PUSH1 0x1 PUSH1 0x11 PUSH1 0xC0 SHL ADD PUSH1 0x1 PUSH1 0xFB SHL ADD SWAP1 DUP5 SWAP1 MULMOD SWAP3 PUSH2 0x1AA4 JUMP JUMPDEST SWAP2 SWAP1 PUSH2 0x1AE3 DUP5 PUSH2 0x329 JUMP JUMPDEST PUSH1 0x0 NOT DUP2 ADD SWAP1 DUP2 GT PUSH2 0x21D JUMPI PUSH2 0x1AF8 SWAP1 PUSH2 0x1A05 JUMP JUMPDEST SWAP4 PUSH2 0x1B02 DUP2 PUSH2 0x329 JUMP JUMPDEST PUSH1 0x1 NOT DUP2 ADD SWAP1 DUP2 GT PUSH2 0x21D JUMPI PUSH2 0x1B17 SWAP1 PUSH2 0x1A05 JUMP JUMPDEST SWAP2 PUSH2 0x1B20 PUSH2 0x1A72 JUMP JUMPDEST SWAP6 PUSH1 0x1 SWAP2 PUSH1 0x1 PUSH8 0x800000000000011 PUSH1 0xC0 SHL SUB DUP1 DUP1 JUMPDEST PUSH2 0x1BFB JUMPI POP PUSH1 0x1 SWAP9 SWAP1 POP PUSH1 0x1 PUSH8 0x800000000000011 PUSH1 0xC0 SHL SUB PUSH1 0x2 DUP2 JUMPDEST PUSH2 0x1BBD JUMPI POP POP SWAP2 PUSH2 0x574 SWAP8 SWAP6 SWAP4 SWAP2 PUSH1 0x1 PUSH2 0x1BB0 PUSH2 0x574 DUP9 SWAP7 PUSH2 0x11CE SWAP14 SWAP12 SWAP10 DUP5 PUSH8 0x800000000000011 PUSH1 0xC0 SHL ADD SWAP12 DUP13 DUP12 DUP2 DUP1 DUP1 SWAP15 SWAP13 DUP2 DUP1 SWAP15 SWAP13 DUP2 DUP1 SWAP15 SWAP10 DUP2 DUP1 SWAP12 DUP2 PUSH2 0x1B9B PUSH2 0x1A72 JUMP JUMPDEST PUSH1 0x1 MULMOD SWAP3 MULMOD MULMOD SWAP1 MULMOD SWAP8 MULMOD SWAP2 DUP12 MULMOD MULMOD SWAP1 MULMOD PUSH2 0x344 JUMP JUMPDEST SWAP9 MULMOD SWAP3 MULMOD MULMOD SWAP1 MULMOD SWAP1 PUSH2 0x344 JUMP JUMPDEST PUSH1 0x1 DUP3 AND PUSH2 0x1BE2 JUMPI JUMPDEST PUSH1 0x1 PUSH1 0x11 PUSH1 0xC0 SHL ADD PUSH1 0x1 PUSH1 0xFB SHL ADD SWAP1 DUP1 MULMOD SWAP1 PUSH1 0x1 SHR SWAP1 DUP2 PUSH2 0x1B53 JUMP JUMPDEST SWAP10 PUSH1 0x1 PUSH1 0x11 PUSH1 0xC0 SHL ADD PUSH1 0x1 PUSH1 0xFB SHL ADD SWAP1 DUP12 SWAP1 MULMOD SWAP10 PUSH2 0x1BC6 JUMP JUMPDEST PUSH1 0x1 DUP3 AND PUSH2 0x1C20 JUMPI JUMPDEST PUSH1 0x1 PUSH1 0x11 PUSH1 0xC0 SHL ADD PUSH1 0x1 PUSH1 0xFB SHL ADD SWAP1 DUP1 MULMOD SWAP1 PUSH1 0x1 SHR SWAP1 DUP2 PUSH2 0x1B36 JUMP JUMPDEST SWAP4 PUSH1 0x1 PUSH1 0x11 PUSH1 0xC0 SHL ADD PUSH1 0x1 PUSH1 0xFB SHL ADD SWAP1 DUP6 SWAP1 MULMOD SWAP4 PUSH2 0x1C04 JUMP INVALID LOG2 PUSH5 0x6970667358 0x22 SLT KECCAK256 PC SELFDESTRUCT 0xC0 0xF8 PUSH21 0xC46D03F4015B1D9249FAF2DD7306969F17DAA32E0A LOG4 DUP2 SWAP5 SLT SWAP14 0xE5 PUSH5 0x736F6C6343 STOP ADDMOD SGT STOP CALLER "},"methodIdentifiers":{"verifyFull(uint256[],uint256,uint256[],uint256[],uint256[],uint256[])":"1d7fdb36","verifyWithIPFS(bytes32,uint256,uint256[],uint256[],uint256[],uint256[],uint256[],uint256[])":"05e2a262"}}}}}